{
	"RemixIDE/contracts/StorageFactory.sol": {
		"StorageFactory": {
			"abi": [
				{
					"inputs": [],
					"name": "createSimpleStorageContract",
					"outputs": [],
					"stateMutability": "nonpayable",
					"type": "function"
				},
				{
					"inputs": [
						{
							"internalType": "uint256",
							"name": "_simpleStorageIndex",
							"type": "uint256"
						}
					],
					"name": "sfGet",
					"outputs": [
						{
							"internalType": "uint256",
							"name": "",
							"type": "uint256"
						}
					],
					"stateMutability": "view",
					"type": "function"
				},
				{
					"inputs": [
						{
							"internalType": "uint256",
							"name": "_simpleStorageIndex",
							"type": "uint256"
						},
						{
							"internalType": "uint256",
							"name": "_simpleStorageNumber",
							"type": "uint256"
						}
					],
					"name": "sfStore",
					"outputs": [],
					"stateMutability": "nonpayable",
					"type": "function"
				},
				{
					"inputs": [
						{
							"internalType": "uint256",
							"name": "",
							"type": "uint256"
						}
					],
					"name": "simpleStorageArray",
					"outputs": [
						{
							"internalType": "contract SimpleStorage",
							"name": "",
							"type": "address"
						}
					],
					"stateMutability": "view",
					"type": "function"
				}
			],
			"devdoc": {
				"kind": "dev",
				"methods": {},
				"version": 1
			},
			"evm": {
				"assembly": "    /* \"RemixIDE/contracts/StorageFactory.sol\":95:661  contract StorageFactory{\r... */\n  mstore(0x40, 0x80)\n  callvalue\n  dup1\n  iszero\n  tag_1\n  jumpi\n  0x00\n  dup1\n  revert\ntag_1:\n  pop\n  dataSize(sub_0)\n  dup1\n  dataOffset(sub_0)\n  0x00\n  codecopy\n  0x00\n  return\nstop\n\nsub_0: assembly {\n        /* \"RemixIDE/contracts/StorageFactory.sol\":95:661  contract StorageFactory{\r... */\n      mstore(0x40, 0x80)\n      callvalue\n      dup1\n      iszero\n      tag_1\n      jumpi\n      0x00\n      dup1\n      revert\n    tag_1:\n      pop\n      jumpi(tag_2, lt(calldatasize, 0x04))\n      shr(0xe0, calldataload(0x00))\n      dup1\n      0x1563700f\n      eq\n      tag_3\n      jumpi\n      dup1\n      0x1dda6541\n      eq\n      tag_4\n      jumpi\n      dup1\n      0x64591bf1\n      eq\n      tag_5\n      jumpi\n      dup1\n      0xc5f19c20\n      eq\n      tag_6\n      jumpi\n    tag_2:\n      0x00\n      dup1\n      revert\n        /* \"RemixIDE/contracts/StorageFactory.sol\":346:508  function sfStore(uint _simpleStorageIndex, uint _simpleStorageNumber) public{\r... */\n    tag_3:\n      tag_7\n      0x04\n      dup1\n      calldatasize\n      sub\n      dup2\n      add\n      swap1\n      tag_8\n      swap2\n      swap1\n      tag_9\n      jump\t// in\n    tag_8:\n      tag_10\n      jump\t// in\n    tag_7:\n      stop\n        /* \"RemixIDE/contracts/StorageFactory.sol\":175:338  function createSimpleStorageContract() public {\r... */\n    tag_4:\n      tag_11\n      tag_12\n      jump\t// in\n    tag_11:\n      stop\n        /* \"RemixIDE/contracts/StorageFactory.sol\":125:166  SimpleStorage[] public simpleStorageArray */\n    tag_5:\n      tag_13\n      0x04\n      dup1\n      calldatasize\n      sub\n      dup2\n      add\n      swap1\n      tag_14\n      swap2\n      swap1\n      tag_15\n      jump\t// in\n    tag_14:\n      tag_16\n      jump\t// in\n    tag_13:\n      mload(0x40)\n      tag_17\n      swap2\n      swap1\n      tag_18\n      jump\t// in\n    tag_17:\n      mload(0x40)\n      dup1\n      swap2\n      sub\n      swap1\n      return\n        /* \"RemixIDE/contracts/StorageFactory.sol\":516:658  function sfGet(uint _simpleStorageIndex) public view returns(uint){\r... */\n    tag_6:\n      tag_19\n      0x04\n      dup1\n      calldatasize\n      sub\n      dup2\n      add\n      swap1\n      tag_20\n      swap2\n      swap1\n      tag_15\n      jump\t// in\n    tag_20:\n      tag_21\n      jump\t// in\n    tag_19:\n      mload(0x40)\n      tag_22\n      swap2\n      swap1\n      tag_23\n      jump\t// in\n    tag_22:\n      mload(0x40)\n      dup1\n      swap2\n      sub\n      swap1\n      return\n        /* \"RemixIDE/contracts/StorageFactory.sol\":346:508  function sfStore(uint _simpleStorageIndex, uint _simpleStorageNumber) public{\r... */\n    tag_10:\n        /* \"RemixIDE/contracts/StorageFactory.sol\":433:451  simpleStorageArray */\n      0x00\n        /* \"RemixIDE/contracts/StorageFactory.sol\":452:471  _simpleStorageIndex */\n      dup3\n        /* \"RemixIDE/contracts/StorageFactory.sol\":433:472  simpleStorageArray[_simpleStorageIndex] */\n      dup2\n      sload\n      dup2\n      lt\n      tag_25\n      jumpi\n      tag_26\n      tag_27\n      jump\t// in\n    tag_26:\n    tag_25:\n      swap1\n      0x00\n      mstore\n      keccak256(0x00, 0x20)\n      add\n      0x00\n      swap1\n      sload\n      swap1\n      0x0100\n      exp\n      swap1\n      div\n      0xffffffffffffffffffffffffffffffffffffffff\n      and\n        /* \"RemixIDE/contracts/StorageFactory.sol\":433:478  simpleStorageArray[_simpleStorageIndex].Store */\n      0xffffffffffffffffffffffffffffffffffffffff\n      and\n      0x69404ebd\n        /* \"RemixIDE/contracts/StorageFactory.sol\":479:499  _simpleStorageNumber */\n      dup3\n        /* \"RemixIDE/contracts/StorageFactory.sol\":433:500  simpleStorageArray[_simpleStorageIndex].Store(_simpleStorageNumber) */\n      mload(0x40)\n      dup3\n      0xffffffff\n      and\n      0xe0\n      shl\n      dup2\n      mstore\n      0x04\n      add\n      tag_29\n      swap2\n      swap1\n      tag_23\n      jump\t// in\n    tag_29:\n      0x00\n      mload(0x40)\n      dup1\n      dup4\n      sub\n      dup2\n      0x00\n      dup8\n      dup1\n      extcodesize\n      iszero\n      dup1\n      iszero\n      tag_30\n      jumpi\n      0x00\n      dup1\n      revert\n    tag_30:\n      pop\n      gas\n      call\n      iszero\n      dup1\n      iszero\n      tag_32\n      jumpi\n      returndatasize\n      0x00\n      dup1\n      returndatacopy\n      revert(0x00, returndatasize)\n    tag_32:\n      pop\n      pop\n      pop\n      pop\n        /* \"RemixIDE/contracts/StorageFactory.sol\":346:508  function sfStore(uint _simpleStorageIndex, uint _simpleStorageNumber) public{\r... */\n      pop\n      pop\n      jump\t// out\n        /* \"RemixIDE/contracts/StorageFactory.sol\":175:338  function createSimpleStorageContract() public {\r... */\n    tag_12:\n        /* \"RemixIDE/contracts/StorageFactory.sol\":232:259  SimpleStorage simpleStorage */\n      0x00\n        /* \"RemixIDE/contracts/StorageFactory.sol\":262:281  new SimpleStorage() */\n      mload(0x40)\n      tag_34\n      swap1\n      tag_35\n      jump\t// in\n    tag_34:\n      mload(0x40)\n      dup1\n      swap2\n      sub\n      swap1\n      0x00\n      create\n      dup1\n      iszero\n      dup1\n      iszero\n      tag_36\n      jumpi\n      returndatasize\n      0x00\n      dup1\n      returndatacopy\n      revert(0x00, returndatasize)\n    tag_36:\n      pop\n        /* \"RemixIDE/contracts/StorageFactory.sol\":232:281  SimpleStorage simpleStorage = new SimpleStorage() */\n      swap1\n      pop\n        /* \"RemixIDE/contracts/StorageFactory.sol\":292:310  simpleStorageArray */\n      0x00\n        /* \"RemixIDE/contracts/StorageFactory.sol\":316:329  simpleStorage */\n      dup2\n        /* \"RemixIDE/contracts/StorageFactory.sol\":292:330  simpleStorageArray.push(simpleStorage) */\n      swap1\n      dup1\n      0x01\n      dup2\n      sload\n      add\n      dup1\n      dup3\n      sstore\n      dup1\n      swap2\n      pop\n      pop\n      0x01\n      swap1\n      sub\n      swap1\n      0x00\n      mstore\n      keccak256(0x00, 0x20)\n      add\n      0x00\n      swap1\n      swap2\n      swap1\n      swap2\n      swap1\n      swap2\n      0x0100\n      exp\n      dup2\n      sload\n      dup2\n      0xffffffffffffffffffffffffffffffffffffffff\n      mul\n      not\n      and\n      swap1\n      dup4\n      0xffffffffffffffffffffffffffffffffffffffff\n      and\n      mul\n      or\n      swap1\n      sstore\n      pop\n        /* \"RemixIDE/contracts/StorageFactory.sol\":221:338  {\r... */\n      pop\n        /* \"RemixIDE/contracts/StorageFactory.sol\":175:338  function createSimpleStorageContract() public {\r... */\n      jump\t// out\n        /* \"RemixIDE/contracts/StorageFactory.sol\":125:166  SimpleStorage[] public simpleStorageArray */\n    tag_16:\n      0x00\n      dup2\n      dup2\n      sload\n      dup2\n      lt\n      tag_38\n      jumpi\n      0x00\n      dup1\n      revert\n    tag_38:\n      swap1\n      0x00\n      mstore\n      keccak256(0x00, 0x20)\n      add\n      0x00\n      swap2\n      pop\n      sload\n      swap1\n      0x0100\n      exp\n      swap1\n      div\n      0xffffffffffffffffffffffffffffffffffffffff\n      and\n      dup2\n      jump\t// out\n        /* \"RemixIDE/contracts/StorageFactory.sol\":516:658  function sfGet(uint _simpleStorageIndex) public view returns(uint){\r... */\n    tag_21:\n        /* \"RemixIDE/contracts/StorageFactory.sol\":577:581  uint */\n      0x00\n        /* \"RemixIDE/contracts/StorageFactory.sol\":600:618  simpleStorageArray */\n      dup1\n        /* \"RemixIDE/contracts/StorageFactory.sol\":619:638  _simpleStorageIndex */\n      dup3\n        /* \"RemixIDE/contracts/StorageFactory.sol\":600:639  simpleStorageArray[_simpleStorageIndex] */\n      dup2\n      sload\n      dup2\n      lt\n      tag_41\n      jumpi\n      tag_42\n      tag_27\n      jump\t// in\n    tag_42:\n    tag_41:\n      swap1\n      0x00\n      mstore\n      keccak256(0x00, 0x20)\n      add\n      0x00\n      swap1\n      sload\n      swap1\n      0x0100\n      exp\n      swap1\n      div\n      0xffffffffffffffffffffffffffffffffffffffff\n      and\n        /* \"RemixIDE/contracts/StorageFactory.sol\":600:648  simpleStorageArray[_simpleStorageIndex].Retrieve */\n      0xffffffffffffffffffffffffffffffffffffffff\n      and\n      0xd39afe6d\n        /* \"RemixIDE/contracts/StorageFactory.sol\":600:650  simpleStorageArray[_simpleStorageIndex].Retrieve() */\n      mload(0x40)\n      dup2\n      0xffffffff\n      and\n      0xe0\n      shl\n      dup2\n      mstore\n      0x04\n      add\n      0x20\n      mload(0x40)\n      dup1\n      dup4\n      sub\n      dup2\n      dup7\n      dup1\n      extcodesize\n      iszero\n      dup1\n      iszero\n      tag_44\n      jumpi\n      0x00\n      dup1\n      revert\n    tag_44:\n      pop\n      gas\n      staticcall\n      iszero\n      dup1\n      iszero\n      tag_46\n      jumpi\n      returndatasize\n      0x00\n      dup1\n      returndatacopy\n      revert(0x00, returndatasize)\n    tag_46:\n      pop\n      pop\n      pop\n      pop\n      mload(0x40)\n      returndatasize\n      not(0x1f)\n      0x1f\n      dup3\n      add\n      and\n      dup3\n      add\n      dup1\n      0x40\n      mstore\n      pop\n      dup2\n      add\n      swap1\n      tag_47\n      swap2\n      swap1\n      tag_48\n      jump\t// in\n    tag_47:\n        /* \"RemixIDE/contracts/StorageFactory.sol\":593:650  return simpleStorageArray[_simpleStorageIndex].Retrieve() */\n      swap1\n      pop\n        /* \"RemixIDE/contracts/StorageFactory.sol\":516:658  function sfGet(uint _simpleStorageIndex) public view returns(uint){\r... */\n      swap2\n      swap1\n      pop\n      jump\t// out\n    tag_35:\n      dataSize(sub_0)\n      dup1\n      dataOffset(sub_0)\n      dup4\n      codecopy\n      add\n      swap1\n      jump\t// out\n        /* \"#utility.yul\":7:146   */\n    tag_50:\n        /* \"#utility.yul\":53:58   */\n      0x00\n        /* \"#utility.yul\":91:97   */\n      dup2\n        /* \"#utility.yul\":78:98   */\n      calldataload\n        /* \"#utility.yul\":69:98   */\n      swap1\n      pop\n        /* \"#utility.yul\":107:140   */\n      tag_52\n        /* \"#utility.yul\":134:139   */\n      dup2\n        /* \"#utility.yul\":107:140   */\n      tag_53\n      jump\t// in\n    tag_52:\n        /* \"#utility.yul\":7:146   */\n      swap3\n      swap2\n      pop\n      pop\n      jump\t// out\n        /* \"#utility.yul\":152:295   */\n    tag_54:\n        /* \"#utility.yul\":209:214   */\n      0x00\n        /* \"#utility.yul\":240:246   */\n      dup2\n        /* \"#utility.yul\":234:247   */\n      mload\n        /* \"#utility.yul\":225:247   */\n      swap1\n      pop\n        /* \"#utility.yul\":256:289   */\n      tag_56\n        /* \"#utility.yul\":283:288   */\n      dup2\n        /* \"#utility.yul\":256:289   */\n      tag_53\n      jump\t// in\n    tag_56:\n        /* \"#utility.yul\":152:295   */\n      swap3\n      swap2\n      pop\n      pop\n      jump\t// out\n        /* \"#utility.yul\":301:630   */\n    tag_15:\n        /* \"#utility.yul\":360:366   */\n      0x00\n        /* \"#utility.yul\":409:411   */\n      0x20\n        /* \"#utility.yul\":397:406   */\n      dup3\n        /* \"#utility.yul\":388:395   */\n      dup5\n        /* \"#utility.yul\":384:407   */\n      sub\n        /* \"#utility.yul\":380:412   */\n      slt\n        /* \"#utility.yul\":377:496   */\n      iszero\n      tag_58\n      jumpi\n        /* \"#utility.yul\":415:494   */\n      tag_59\n      tag_60\n      jump\t// in\n    tag_59:\n        /* \"#utility.yul\":377:496   */\n    tag_58:\n        /* \"#utility.yul\":535:536   */\n      0x00\n        /* \"#utility.yul\":560:613   */\n      tag_61\n        /* \"#utility.yul\":605:612   */\n      dup5\n        /* \"#utility.yul\":596:602   */\n      dup3\n        /* \"#utility.yul\":585:594   */\n      dup6\n        /* \"#utility.yul\":581:603   */\n      add\n        /* \"#utility.yul\":560:613   */\n      tag_50\n      jump\t// in\n    tag_61:\n        /* \"#utility.yul\":550:613   */\n      swap2\n      pop\n        /* \"#utility.yul\":506:623   */\n      pop\n        /* \"#utility.yul\":301:630   */\n      swap3\n      swap2\n      pop\n      pop\n      jump\t// out\n        /* \"#utility.yul\":636:987   */\n    tag_48:\n        /* \"#utility.yul\":706:712   */\n      0x00\n        /* \"#utility.yul\":755:757   */\n      0x20\n        /* \"#utility.yul\":743:752   */\n      dup3\n        /* \"#utility.yul\":734:741   */\n      dup5\n        /* \"#utility.yul\":730:753   */\n      sub\n        /* \"#utility.yul\":726:758   */\n      slt\n        /* \"#utility.yul\":723:842   */\n      iszero\n      tag_63\n      jumpi\n        /* \"#utility.yul\":761:840   */\n      tag_64\n      tag_60\n      jump\t// in\n    tag_64:\n        /* \"#utility.yul\":723:842   */\n    tag_63:\n        /* \"#utility.yul\":881:882   */\n      0x00\n        /* \"#utility.yul\":906:970   */\n      tag_65\n        /* \"#utility.yul\":962:969   */\n      dup5\n        /* \"#utility.yul\":953:959   */\n      dup3\n        /* \"#utility.yul\":942:951   */\n      dup6\n        /* \"#utility.yul\":938:960   */\n      add\n        /* \"#utility.yul\":906:970   */\n      tag_54\n      jump\t// in\n    tag_65:\n        /* \"#utility.yul\":896:970   */\n      swap2\n      pop\n        /* \"#utility.yul\":852:980   */\n      pop\n        /* \"#utility.yul\":636:987   */\n      swap3\n      swap2\n      pop\n      pop\n      jump\t// out\n        /* \"#utility.yul\":993:1467   */\n    tag_9:\n        /* \"#utility.yul\":1061:1067   */\n      0x00\n        /* \"#utility.yul\":1069:1075   */\n      dup1\n        /* \"#utility.yul\":1118:1120   */\n      0x40\n        /* \"#utility.yul\":1106:1115   */\n      dup4\n        /* \"#utility.yul\":1097:1104   */\n      dup6\n        /* \"#utility.yul\":1093:1116   */\n      sub\n        /* \"#utility.yul\":1089:1121   */\n      slt\n        /* \"#utility.yul\":1086:1205   */\n      iszero\n      tag_67\n      jumpi\n        /* \"#utility.yul\":1124:1203   */\n      tag_68\n      tag_60\n      jump\t// in\n    tag_68:\n        /* \"#utility.yul\":1086:1205   */\n    tag_67:\n        /* \"#utility.yul\":1244:1245   */\n      0x00\n        /* \"#utility.yul\":1269:1322   */\n      tag_69\n        /* \"#utility.yul\":1314:1321   */\n      dup6\n        /* \"#utility.yul\":1305:1311   */\n      dup3\n        /* \"#utility.yul\":1294:1303   */\n      dup7\n        /* \"#utility.yul\":1290:1312   */\n      add\n        /* \"#utility.yul\":1269:1322   */\n      tag_50\n      jump\t// in\n    tag_69:\n        /* \"#utility.yul\":1259:1322   */\n      swap3\n      pop\n        /* \"#utility.yul\":1215:1332   */\n      pop\n        /* \"#utility.yul\":1371:1373   */\n      0x20\n        /* \"#utility.yul\":1397:1450   */\n      tag_70\n        /* \"#utility.yul\":1442:1449   */\n      dup6\n        /* \"#utility.yul\":1433:1439   */\n      dup3\n        /* \"#utility.yul\":1422:1431   */\n      dup7\n        /* \"#utility.yul\":1418:1440   */\n      add\n        /* \"#utility.yul\":1397:1450   */\n      tag_50\n      jump\t// in\n    tag_70:\n        /* \"#utility.yul\":1387:1450   */\n      swap2\n      pop\n        /* \"#utility.yul\":1342:1460   */\n      pop\n        /* \"#utility.yul\":993:1467   */\n      swap3\n      pop\n      swap3\n      swap1\n      pop\n      jump\t// out\n        /* \"#utility.yul\":1473:1644   */\n    tag_71:\n        /* \"#utility.yul\":1580:1637   */\n      tag_73\n        /* \"#utility.yul\":1631:1636   */\n      dup2\n        /* \"#utility.yul\":1580:1637   */\n      tag_74\n      jump\t// in\n    tag_73:\n        /* \"#utility.yul\":1575:1578   */\n      dup3\n        /* \"#utility.yul\":1568:1638   */\n      mstore\n        /* \"#utility.yul\":1473:1644   */\n      pop\n      pop\n      jump\t// out\n        /* \"#utility.yul\":1650:1768   */\n    tag_75:\n        /* \"#utility.yul\":1737:1761   */\n      tag_77\n        /* \"#utility.yul\":1755:1760   */\n      dup2\n        /* \"#utility.yul\":1737:1761   */\n      tag_78\n      jump\t// in\n    tag_77:\n        /* \"#utility.yul\":1732:1735   */\n      dup3\n        /* \"#utility.yul\":1725:1762   */\n      mstore\n        /* \"#utility.yul\":1650:1768   */\n      pop\n      pop\n      jump\t// out\n        /* \"#utility.yul\":1774:2036   */\n    tag_18:\n        /* \"#utility.yul\":1887:1891   */\n      0x00\n        /* \"#utility.yul\":1925:1927   */\n      0x20\n        /* \"#utility.yul\":1914:1923   */\n      dup3\n        /* \"#utility.yul\":1910:1928   */\n      add\n        /* \"#utility.yul\":1902:1928   */\n      swap1\n      pop\n        /* \"#utility.yul\":1938:2029   */\n      tag_80\n        /* \"#utility.yul\":2026:2027   */\n      0x00\n        /* \"#utility.yul\":2015:2024   */\n      dup4\n        /* \"#utility.yul\":2011:2028   */\n      add\n        /* \"#utility.yul\":2002:2008   */\n      dup5\n        /* \"#utility.yul\":1938:2029   */\n      tag_71\n      jump\t// in\n    tag_80:\n        /* \"#utility.yul\":1774:2036   */\n      swap3\n      swap2\n      pop\n      pop\n      jump\t// out\n        /* \"#utility.yul\":2042:2264   */\n    tag_23:\n        /* \"#utility.yul\":2135:2139   */\n      0x00\n        /* \"#utility.yul\":2173:2175   */\n      0x20\n        /* \"#utility.yul\":2162:2171   */\n      dup3\n        /* \"#utility.yul\":2158:2176   */\n      add\n        /* \"#utility.yul\":2150:2176   */\n      swap1\n      pop\n        /* \"#utility.yul\":2186:2257   */\n      tag_82\n        /* \"#utility.yul\":2254:2255   */\n      0x00\n        /* \"#utility.yul\":2243:2252   */\n      dup4\n        /* \"#utility.yul\":2239:2256   */\n      add\n        /* \"#utility.yul\":2230:2236   */\n      dup5\n        /* \"#utility.yul\":2186:2257   */\n      tag_75\n      jump\t// in\n    tag_82:\n        /* \"#utility.yul\":2042:2264   */\n      swap3\n      swap2\n      pop\n      pop\n      jump\t// out\n        /* \"#utility.yul\":2351:2477   */\n    tag_85:\n        /* \"#utility.yul\":2388:2395   */\n      0x00\n        /* \"#utility.yul\":2428:2470   */\n      0xffffffffffffffffffffffffffffffffffffffff\n        /* \"#utility.yul\":2421:2426   */\n      dup3\n        /* \"#utility.yul\":2417:2471   */\n      and\n        /* \"#utility.yul\":2406:2471   */\n      swap1\n      pop\n        /* \"#utility.yul\":2351:2477   */\n      swap2\n      swap1\n      pop\n      jump\t// out\n        /* \"#utility.yul\":2483:2560   */\n    tag_78:\n        /* \"#utility.yul\":2520:2527   */\n      0x00\n        /* \"#utility.yul\":2549:2554   */\n      dup2\n        /* \"#utility.yul\":2538:2554   */\n      swap1\n      pop\n        /* \"#utility.yul\":2483:2560   */\n      swap2\n      swap1\n      pop\n      jump\t// out\n        /* \"#utility.yul\":2566:2712   */\n    tag_74:\n        /* \"#utility.yul\":2636:2645   */\n      0x00\n        /* \"#utility.yul\":2669:2706   */\n      tag_89\n        /* \"#utility.yul\":2700:2705   */\n      dup3\n        /* \"#utility.yul\":2669:2706   */\n      tag_90\n      jump\t// in\n    tag_89:\n        /* \"#utility.yul\":2656:2706   */\n      swap1\n      pop\n        /* \"#utility.yul\":2566:2712   */\n      swap2\n      swap1\n      pop\n      jump\t// out\n        /* \"#utility.yul\":2718:2844   */\n    tag_90:\n        /* \"#utility.yul\":2768:2777   */\n      0x00\n        /* \"#utility.yul\":2801:2838   */\n      tag_92\n        /* \"#utility.yul\":2832:2837   */\n      dup3\n        /* \"#utility.yul\":2801:2838   */\n      tag_93\n      jump\t// in\n    tag_92:\n        /* \"#utility.yul\":2788:2838   */\n      swap1\n      pop\n        /* \"#utility.yul\":2718:2844   */\n      swap2\n      swap1\n      pop\n      jump\t// out\n        /* \"#utility.yul\":2850:2963   */\n    tag_93:\n        /* \"#utility.yul\":2900:2909   */\n      0x00\n        /* \"#utility.yul\":2933:2957   */\n      tag_95\n        /* \"#utility.yul\":2951:2956   */\n      dup3\n        /* \"#utility.yul\":2933:2957   */\n      tag_85\n      jump\t// in\n    tag_95:\n        /* \"#utility.yul\":2920:2957   */\n      swap1\n      pop\n        /* \"#utility.yul\":2850:2963   */\n      swap2\n      swap1\n      pop\n      jump\t// out\n        /* \"#utility.yul\":2969:3149   */\n    tag_27:\n        /* \"#utility.yul\":3017:3094   */\n      0x4e487b7100000000000000000000000000000000000000000000000000000000\n        /* \"#utility.yul\":3014:3015   */\n      0x00\n        /* \"#utility.yul\":3007:3095   */\n      mstore\n        /* \"#utility.yul\":3114:3118   */\n      0x32\n        /* \"#utility.yul\":3111:3112   */\n      0x04\n        /* \"#utility.yul\":3104:3119   */\n      mstore\n        /* \"#utility.yul\":3138:3142   */\n      0x24\n        /* \"#utility.yul\":3135:3136   */\n      0x00\n        /* \"#utility.yul\":3128:3143   */\n      revert\n        /* \"#utility.yul\":3278:3395   */\n    tag_60:\n        /* \"#utility.yul\":3387:3388   */\n      0x00\n        /* \"#utility.yul\":3384:3385   */\n      dup1\n        /* \"#utility.yul\":3377:3389   */\n      revert\n        /* \"#utility.yul\":3401:3523   */\n    tag_53:\n        /* \"#utility.yul\":3474:3498   */\n      tag_101\n        /* \"#utility.yul\":3492:3497   */\n      dup2\n        /* \"#utility.yul\":3474:3498   */\n      tag_78\n      jump\t// in\n    tag_101:\n        /* \"#utility.yul\":3467:3472   */\n      dup2\n        /* \"#utility.yul\":3464:3499   */\n      eq\n        /* \"#utility.yul\":3454:3517   */\n      tag_102\n      jumpi\n        /* \"#utility.yul\":3513:3514   */\n      0x00\n        /* \"#utility.yul\":3510:3511   */\n      dup1\n        /* \"#utility.yul\":3503:3515   */\n      revert\n        /* \"#utility.yul\":3454:3517   */\n    tag_102:\n        /* \"#utility.yul\":3401:3523   */\n      pop\n      jump\t// out\n    stop\n\n    sub_0: assembly {\n            /* \"RemixIDE/contracts/SimpleStorage.sol\":63:1500  contract SimpleStorage{\r... */\n          mstore(0x40, 0x80)\n            /* \"RemixIDE/contracts/SimpleStorage.sol\":434:438  true */\n          0x01\n            /* \"RemixIDE/contracts/SimpleStorage.sol\":420:438  bool FavNum = true */\n          0x00\n          dup1\n          0x0100\n          exp\n          dup2\n          sload\n          dup2\n          0xff\n          mul\n          not\n          and\n          swap1\n          dup4\n          iszero\n          iszero\n          mul\n          or\n          swap1\n          sstore\n          pop\n            /* \"RemixIDE/contracts/SimpleStorage.sol\":477:478  7 */\n          0x07\n            /* \"RemixIDE/contracts/SimpleStorage.sol\":462:478  uint FavNum1 = 7 */\n          0x01\n          sstore\n            /* \"RemixIDE/contracts/SimpleStorage.sol\":544:547  619 */\n          0x026b\n            /* \"RemixIDE/contracts/SimpleStorage.sol\":527:547  uint16 FavNum2 = 619 */\n          0x02\n          exp(0x0100, 0x00)\n          dup2\n          sload\n          dup2\n          0xffff\n          mul\n          not\n          and\n          swap1\n          dup4\n          0xffff\n          and\n          mul\n          or\n          swap1\n          sstore\n          pop\n            /* \"RemixIDE/contracts/SimpleStorage.sol\":583:585  -9 */\n          0xfffffffffffffffffffffffffffffffffffffffffffffffffffffffffffffff7\n            /* \"RemixIDE/contracts/SimpleStorage.sol\":569:585  int FavNum3 = -9 */\n          0x03\n          sstore\n            /* \"RemixIDE/contracts/SimpleStorage.sol\":627:656  string FavNuminText = \"Seven\" */\n          mload(0x40)\n          dup1\n          0x40\n          add\n          0x40\n          mstore\n          dup1\n          0x05\n          dup2\n          mstore\n          0x20\n          add\n          0x536576656e000000000000000000000000000000000000000000000000000000\n          dup2\n          mstore\n          pop\n          0x04\n          swap1\n          dup1\n          mload\n          swap1\n          0x20\n          add\n          swap1\n          tag_1\n          swap3\n          swap2\n          swap1\n          tag_2\n          jump\t// in\n        tag_1:\n          pop\n            /* \"RemixIDE/contracts/SimpleStorage.sol\":691:733  0xf2AfA62533357e2a39864680A3dAcd1f49FA6bd5 */\n          0xf2afa62533357e2a39864680a3dacd1f49fa6bd5\n            /* \"RemixIDE/contracts/SimpleStorage.sol\":670:733  address myAddress =  0xf2AfA62533357e2a39864680A3dAcd1f49FA6bd5 */\n          0x05\n          exp(0x0100, 0x00)\n          dup2\n          sload\n          dup2\n          0xffffffffffffffffffffffffffffffffffffffff\n          mul\n          not\n          and\n          swap1\n          dup4\n          0xffffffffffffffffffffffffffffffffffffffff\n          and\n          mul\n          or\n          swap1\n          sstore\n          pop\n            /* \"RemixIDE/contracts/SimpleStorage.sol\":63:1500  contract SimpleStorage{\r... */\n          callvalue\n          dup1\n          iszero\n          tag_3\n          jumpi\n          0x00\n          dup1\n          revert\n        tag_3:\n          pop\n          jump(tag_4)\n        tag_2:\n          dup3\n          dup1\n          sload\n          tag_5\n          swap1\n          tag_6\n          jump\t// in\n        tag_5:\n          swap1\n          0x00\n          mstore\n          keccak256(0x00, 0x20)\n          swap1\n          0x1f\n          add\n          0x20\n          swap1\n          div\n          dup2\n          add\n          swap3\n          dup3\n          tag_8\n          jumpi\n          0x00\n          dup6\n          sstore\n          jump(tag_7)\n        tag_8:\n          dup3\n          0x1f\n          lt\n          tag_9\n          jumpi\n          dup1\n          mload\n          not(0xff)\n          and\n          dup4\n          dup1\n          add\n          or\n          dup6\n          sstore\n          jump(tag_7)\n        tag_9:\n          dup3\n          dup1\n          add\n          0x01\n          add\n          dup6\n          sstore\n          dup3\n          iszero\n          tag_7\n          jumpi\n          swap2\n          dup3\n          add\n        tag_10:\n          dup3\n          dup2\n          gt\n          iszero\n          tag_11\n          jumpi\n          dup3\n          mload\n          dup3\n          sstore\n          swap2\n          0x20\n          add\n          swap2\n          swap1\n          0x01\n          add\n          swap1\n          jump(tag_10)\n        tag_11:\n        tag_7:\n          pop\n          swap1\n          pop\n          tag_12\n          swap2\n          swap1\n          tag_13\n          jump\t// in\n        tag_12:\n          pop\n          swap1\n          jump\t// out\n        tag_13:\n        tag_14:\n          dup1\n          dup3\n          gt\n          iszero\n          tag_15\n          jumpi\n          0x00\n          dup2\n          0x00\n          swap1\n          sstore\n          pop\n          0x01\n          add\n          jump(tag_14)\n        tag_15:\n          pop\n          swap1\n          jump\t// out\n            /* \"#utility.yul\":7:327   */\n        tag_6:\n            /* \"#utility.yul\":51:57   */\n          0x00\n            /* \"#utility.yul\":88:89   */\n          0x02\n            /* \"#utility.yul\":82:86   */\n          dup3\n            /* \"#utility.yul\":78:90   */\n          div\n            /* \"#utility.yul\":68:90   */\n          swap1\n          pop\n            /* \"#utility.yul\":135:136   */\n          0x01\n            /* \"#utility.yul\":129:133   */\n          dup3\n            /* \"#utility.yul\":125:137   */\n          and\n            /* \"#utility.yul\":156:174   */\n          dup1\n            /* \"#utility.yul\":146:227   */\n          tag_18\n          jumpi\n            /* \"#utility.yul\":212:216   */\n          0x7f\n            /* \"#utility.yul\":204:210   */\n          dup3\n            /* \"#utility.yul\":200:217   */\n          and\n            /* \"#utility.yul\":190:217   */\n          swap2\n          pop\n            /* \"#utility.yul\":146:227   */\n        tag_18:\n            /* \"#utility.yul\":274:276   */\n          0x20\n            /* \"#utility.yul\":266:272   */\n          dup3\n            /* \"#utility.yul\":263:277   */\n          lt\n            /* \"#utility.yul\":243:261   */\n          dup2\n            /* \"#utility.yul\":240:278   */\n          eq\n            /* \"#utility.yul\":237:321   */\n          iszero\n          tag_19\n          jumpi\n            /* \"#utility.yul\":293:311   */\n          tag_20\n          tag_21\n          jump\t// in\n        tag_20:\n            /* \"#utility.yul\":237:321   */\n        tag_19:\n            /* \"#utility.yul\":58:327   */\n          pop\n            /* \"#utility.yul\":7:327   */\n          swap2\n          swap1\n          pop\n          jump\t// out\n            /* \"#utility.yul\":333:513   */\n        tag_21:\n            /* \"#utility.yul\":381:458   */\n          0x4e487b7100000000000000000000000000000000000000000000000000000000\n            /* \"#utility.yul\":378:379   */\n          0x00\n            /* \"#utility.yul\":371:459   */\n          mstore\n            /* \"#utility.yul\":478:482   */\n          0x22\n            /* \"#utility.yul\":475:476   */\n          0x04\n            /* \"#utility.yul\":468:483   */\n          mstore\n            /* \"#utility.yul\":502:506   */\n          0x24\n            /* \"#utility.yul\":499:500   */\n          0x00\n            /* \"#utility.yul\":492:507   */\n          revert\n            /* \"RemixIDE/contracts/SimpleStorage.sol\":63:1500  contract SimpleStorage{\r... */\n        tag_4:\n          dataSize(sub_0)\n          dup1\n          dataOffset(sub_0)\n          0x00\n          codecopy\n          0x00\n          return\n        stop\n\n        sub_0: assembly {\n                /* \"RemixIDE/contracts/SimpleStorage.sol\":63:1500  contract SimpleStorage{\r... */\n              mstore(0x40, 0x80)\n              callvalue\n              dup1\n              iszero\n              tag_1\n              jumpi\n              0x00\n              dup1\n              revert\n            tag_1:\n              pop\n              jumpi(tag_2, lt(calldatasize, 0x04))\n              shr(0xe0, calldataload(0x00))\n              dup1\n              0x69404ebd\n              eq\n              tag_3\n              jumpi\n              dup1\n              0x6f760f41\n              eq\n              tag_4\n              jumpi\n              dup1\n              0x8bab8dd5\n              eq\n              tag_5\n              jumpi\n              dup1\n              0x9e7a13ad\n              eq\n              tag_6\n              jumpi\n              dup1\n              0xd39afe6d\n              eq\n              tag_7\n              jumpi\n            tag_2:\n              0x00\n              dup1\n              revert\n                /* \"RemixIDE/contracts/SimpleStorage.sol\":835:929  function Store(uint _favoriteNumber) public{\r... */\n            tag_3:\n              tag_8\n              0x04\n              dup1\n              calldatasize\n              sub\n              dup2\n              add\n              swap1\n              tag_9\n              swap2\n              swap1\n              tag_10\n              jump\t// in\n            tag_9:\n              tag_11\n              jump\t// in\n            tag_8:\n              stop\n                /* \"RemixIDE/contracts/SimpleStorage.sol\":1299:1495  function addPerson(string memory _name, uint _favoriteNumber) public{\r... */\n            tag_4:\n              tag_12\n              0x04\n              dup1\n              calldatasize\n              sub\n              dup2\n              add\n              swap1\n              tag_13\n              swap2\n              swap1\n              tag_14\n              jump\t// in\n            tag_13:\n              tag_15\n              jump\t// in\n            tag_12:\n              stop\n                /* \"RemixIDE/contracts/SimpleStorage.sol\":1084:1135  mapping(string => uint) public nameToFavoriteNumber */\n            tag_5:\n              tag_16\n              0x04\n              dup1\n              calldatasize\n              sub\n              dup2\n              add\n              swap1\n              tag_17\n              swap2\n              swap1\n              tag_18\n              jump\t// in\n            tag_17:\n              tag_19\n              jump\t// in\n            tag_16:\n              mload(0x40)\n              tag_20\n              swap2\n              swap1\n              tag_21\n              jump\t// in\n            tag_20:\n              mload(0x40)\n              dup1\n              swap2\n              sub\n              swap1\n              return\n                /* \"RemixIDE/contracts/SimpleStorage.sol\":1252:1274  People[] public people */\n            tag_6:\n              tag_22\n              0x04\n              dup1\n              calldatasize\n              sub\n              dup2\n              add\n              swap1\n              tag_23\n              swap2\n              swap1\n              tag_10\n              jump\t// in\n            tag_23:\n              tag_24\n              jump\t// in\n            tag_22:\n              mload(0x40)\n              tag_25\n              swap3\n              swap2\n              swap1\n              tag_26\n              jump\t// in\n            tag_25:\n              mload(0x40)\n              dup1\n              swap2\n              sub\n              swap1\n              return\n                /* \"RemixIDE/contracts/SimpleStorage.sol\":991:1076  function Retrieve() public view returns(uint){\r... */\n            tag_7:\n              tag_27\n              tag_28\n              jump\t// in\n            tag_27:\n              mload(0x40)\n              tag_29\n              swap2\n              swap1\n              tag_21\n              jump\t// in\n            tag_29:\n              mload(0x40)\n              dup1\n              swap2\n              sub\n              swap1\n              return\n                /* \"RemixIDE/contracts/SimpleStorage.sol\":835:929  function Store(uint _favoriteNumber) public{\r... */\n            tag_11:\n                /* \"RemixIDE/contracts/SimpleStorage.sol\":906:921  _favoriteNumber */\n              dup1\n                /* \"RemixIDE/contracts/SimpleStorage.sol\":889:903  favoriteNumber */\n              0x06\n                /* \"RemixIDE/contracts/SimpleStorage.sol\":889:921  favoriteNumber = _favoriteNumber */\n              dup2\n              swap1\n              sstore\n              pop\n                /* \"RemixIDE/contracts/SimpleStorage.sol\":835:929  function Store(uint _favoriteNumber) public{\r... */\n              pop\n              jump\t// out\n                /* \"RemixIDE/contracts/SimpleStorage.sol\":1299:1495  function addPerson(string memory _name, uint _favoriteNumber) public{\r... */\n            tag_15:\n                /* \"RemixIDE/contracts/SimpleStorage.sol\":1378:1384  people */\n              0x08\n                /* \"RemixIDE/contracts/SimpleStorage.sol\":1390:1420  People(_favoriteNumber, _name) */\n              mload(0x40)\n              dup1\n              0x40\n              add\n              0x40\n              mstore\n              dup1\n                /* \"RemixIDE/contracts/SimpleStorage.sol\":1397:1412  _favoriteNumber */\n              dup4\n                /* \"RemixIDE/contracts/SimpleStorage.sol\":1390:1420  People(_favoriteNumber, _name) */\n              dup2\n              mstore\n              0x20\n              add\n                /* \"RemixIDE/contracts/SimpleStorage.sol\":1414:1419  _name */\n              dup5\n                /* \"RemixIDE/contracts/SimpleStorage.sol\":1390:1420  People(_favoriteNumber, _name) */\n              dup2\n              mstore\n              pop\n                /* \"RemixIDE/contracts/SimpleStorage.sol\":1378:1421  people.push(People(_favoriteNumber, _name)) */\n              swap1\n              dup1\n              0x01\n              dup2\n              sload\n              add\n              dup1\n              dup3\n              sstore\n              dup1\n              swap2\n              pop\n              pop\n              0x01\n              swap1\n              sub\n              swap1\n              0x00\n              mstore\n              keccak256(0x00, 0x20)\n              swap1\n              0x02\n              mul\n              add\n              0x00\n              swap1\n              swap2\n              swap1\n              swap2\n              swap1\n              swap2\n              pop\n              0x00\n              dup3\n              add\n              mload\n              dup2\n              0x00\n              add\n              sstore\n              0x20\n              dup3\n              add\n              mload\n              dup2\n              0x01\n              add\n              swap1\n              dup1\n              mload\n              swap1\n              0x20\n              add\n              swap1\n              tag_33\n              swap3\n              swap2\n              swap1\n              tag_34\n              jump\t// in\n            tag_33:\n              pop\n              pop\n              pop\n                /* \"RemixIDE/contracts/SimpleStorage.sol\":1472:1487  _favoriteNumber */\n              dup1\n                /* \"RemixIDE/contracts/SimpleStorage.sol\":1442:1462  nameToFavoriteNumber */\n              0x07\n                /* \"RemixIDE/contracts/SimpleStorage.sol\":1463:1468  _name */\n              dup4\n                /* \"RemixIDE/contracts/SimpleStorage.sol\":1442:1469  nameToFavoriteNumber[_name] */\n              mload(0x40)\n              tag_35\n              swap2\n              swap1\n              tag_36\n              jump\t// in\n            tag_35:\n              swap1\n              dup2\n              mstore\n              0x20\n              add\n              mload(0x40)\n              dup1\n              swap2\n              sub\n              swap1\n              keccak256\n                /* \"RemixIDE/contracts/SimpleStorage.sol\":1442:1487  nameToFavoriteNumber[_name] = _favoriteNumber */\n              dup2\n              swap1\n              sstore\n              pop\n                /* \"RemixIDE/contracts/SimpleStorage.sol\":1299:1495  function addPerson(string memory _name, uint _favoriteNumber) public{\r... */\n              pop\n              pop\n              jump\t// out\n                /* \"RemixIDE/contracts/SimpleStorage.sol\":1084:1135  mapping(string => uint) public nameToFavoriteNumber */\n            tag_19:\n              0x07\n              dup2\n              dup1\n              mload\n              0x20\n              dup2\n              add\n              dup3\n              add\n              dup1\n              mload\n              dup5\n              dup3\n              mstore\n              0x20\n              dup4\n              add\n              0x20\n              dup6\n              add\n              keccak256\n              dup2\n              dup4\n              mstore\n              dup1\n              swap6\n              pop\n              pop\n              pop\n              pop\n              pop\n              pop\n              0x00\n              swap2\n              pop\n              swap1\n              pop\n              sload\n              dup2\n              jump\t// out\n                /* \"RemixIDE/contracts/SimpleStorage.sol\":1252:1274  People[] public people */\n            tag_24:\n              0x08\n              dup2\n              dup2\n              sload\n              dup2\n              lt\n              tag_37\n              jumpi\n              0x00\n              dup1\n              revert\n            tag_37:\n              swap1\n              0x00\n              mstore\n              keccak256(0x00, 0x20)\n              swap1\n              0x02\n              mul\n              add\n              0x00\n              swap2\n              pop\n              swap1\n              pop\n              dup1\n              0x00\n              add\n              sload\n              swap1\n              dup1\n              0x01\n              add\n              dup1\n              sload\n              tag_39\n              swap1\n              tag_40\n              jump\t// in\n            tag_39:\n              dup1\n              0x1f\n              add\n              0x20\n              dup1\n              swap2\n              div\n              mul\n              0x20\n              add\n              mload(0x40)\n              swap1\n              dup2\n              add\n              0x40\n              mstore\n              dup1\n              swap3\n              swap2\n              swap1\n              dup2\n              dup2\n              mstore\n              0x20\n              add\n              dup3\n              dup1\n              sload\n              tag_41\n              swap1\n              tag_40\n              jump\t// in\n            tag_41:\n              dup1\n              iszero\n              tag_42\n              jumpi\n              dup1\n              0x1f\n              lt\n              tag_43\n              jumpi\n              0x0100\n              dup1\n              dup4\n              sload\n              div\n              mul\n              dup4\n              mstore\n              swap2\n              0x20\n              add\n              swap2\n              jump(tag_42)\n            tag_43:\n              dup3\n              add\n              swap2\n              swap1\n              0x00\n              mstore\n              keccak256(0x00, 0x20)\n              swap1\n            tag_44:\n              dup2\n              sload\n              dup2\n              mstore\n              swap1\n              0x01\n              add\n              swap1\n              0x20\n              add\n              dup1\n              dup4\n              gt\n              tag_44\n              jumpi\n              dup3\n              swap1\n              sub\n              0x1f\n              and\n              dup3\n              add\n              swap2\n            tag_42:\n              pop\n              pop\n              pop\n              pop\n              pop\n              swap1\n              pop\n              dup3\n              jump\t// out\n                /* \"RemixIDE/contracts/SimpleStorage.sol\":991:1076  function Retrieve() public view returns(uint){\r... */\n            tag_28:\n                /* \"RemixIDE/contracts/SimpleStorage.sol\":1031:1035  uint */\n              0x00\n                /* \"RemixIDE/contracts/SimpleStorage.sol\":1054:1068  favoriteNumber */\n              sload(0x06)\n                /* \"RemixIDE/contracts/SimpleStorage.sol\":1047:1068  return favoriteNumber */\n              swap1\n              pop\n                /* \"RemixIDE/contracts/SimpleStorage.sol\":991:1076  function Retrieve() public view returns(uint){\r... */\n              swap1\n              jump\t// out\n            tag_34:\n              dup3\n              dup1\n              sload\n              tag_46\n              swap1\n              tag_40\n              jump\t// in\n            tag_46:\n              swap1\n              0x00\n              mstore\n              keccak256(0x00, 0x20)\n              swap1\n              0x1f\n              add\n              0x20\n              swap1\n              div\n              dup2\n              add\n              swap3\n              dup3\n              tag_48\n              jumpi\n              0x00\n              dup6\n              sstore\n              jump(tag_47)\n            tag_48:\n              dup3\n              0x1f\n              lt\n              tag_49\n              jumpi\n              dup1\n              mload\n              not(0xff)\n              and\n              dup4\n              dup1\n              add\n              or\n              dup6\n              sstore\n              jump(tag_47)\n            tag_49:\n              dup3\n              dup1\n              add\n              0x01\n              add\n              dup6\n              sstore\n              dup3\n              iszero\n              tag_47\n              jumpi\n              swap2\n              dup3\n              add\n            tag_50:\n              dup3\n              dup2\n              gt\n              iszero\n              tag_51\n              jumpi\n              dup3\n              mload\n              dup3\n              sstore\n              swap2\n              0x20\n              add\n              swap2\n              swap1\n              0x01\n              add\n              swap1\n              jump(tag_50)\n            tag_51:\n            tag_47:\n              pop\n              swap1\n              pop\n              tag_52\n              swap2\n              swap1\n              tag_53\n              jump\t// in\n            tag_52:\n              pop\n              swap1\n              jump\t// out\n            tag_53:\n            tag_54:\n              dup1\n              dup3\n              gt\n              iszero\n              tag_55\n              jumpi\n              0x00\n              dup2\n              0x00\n              swap1\n              sstore\n              pop\n              0x01\n              add\n              jump(tag_54)\n            tag_55:\n              pop\n              swap1\n              jump\t// out\n                /* \"#utility.yul\":7:419   */\n            tag_57:\n                /* \"#utility.yul\":85:90   */\n              0x00\n                /* \"#utility.yul\":110:176   */\n              tag_59\n                /* \"#utility.yul\":126:175   */\n              tag_60\n                /* \"#utility.yul\":168:174   */\n              dup5\n                /* \"#utility.yul\":126:175   */\n              tag_61\n              jump\t// in\n            tag_60:\n                /* \"#utility.yul\":110:176   */\n              tag_62\n              jump\t// in\n            tag_59:\n                /* \"#utility.yul\":101:176   */\n              swap1\n              pop\n                /* \"#utility.yul\":199:205   */\n              dup3\n                /* \"#utility.yul\":192:197   */\n              dup2\n                /* \"#utility.yul\":185:206   */\n              mstore\n                /* \"#utility.yul\":237:241   */\n              0x20\n                /* \"#utility.yul\":230:235   */\n              dup2\n                /* \"#utility.yul\":226:242   */\n              add\n                /* \"#utility.yul\":275:278   */\n              dup5\n                /* \"#utility.yul\":266:272   */\n              dup5\n                /* \"#utility.yul\":261:264   */\n              dup5\n                /* \"#utility.yul\":257:273   */\n              add\n                /* \"#utility.yul\":254:279   */\n              gt\n                /* \"#utility.yul\":251:363   */\n              iszero\n              tag_63\n              jumpi\n                /* \"#utility.yul\":282:361   */\n              tag_64\n              tag_65\n              jump\t// in\n            tag_64:\n                /* \"#utility.yul\":251:363   */\n            tag_63:\n                /* \"#utility.yul\":372:413   */\n              tag_66\n                /* \"#utility.yul\":406:412   */\n              dup5\n                /* \"#utility.yul\":401:404   */\n              dup3\n                /* \"#utility.yul\":396:399   */\n              dup6\n                /* \"#utility.yul\":372:413   */\n              tag_67\n              jump\t// in\n            tag_66:\n                /* \"#utility.yul\":91:419   */\n              pop\n                /* \"#utility.yul\":7:419   */\n              swap4\n              swap3\n              pop\n              pop\n              pop\n              jump\t// out\n                /* \"#utility.yul\":439:779   */\n            tag_68:\n                /* \"#utility.yul\":495:500   */\n              0x00\n                /* \"#utility.yul\":544:547   */\n              dup3\n                /* \"#utility.yul\":537:541   */\n              0x1f\n                /* \"#utility.yul\":529:535   */\n              dup4\n                /* \"#utility.yul\":525:542   */\n              add\n                /* \"#utility.yul\":521:548   */\n              slt\n                /* \"#utility.yul\":511:633   */\n              tag_70\n              jumpi\n                /* \"#utility.yul\":552:631   */\n              tag_71\n              tag_72\n              jump\t// in\n            tag_71:\n                /* \"#utility.yul\":511:633   */\n            tag_70:\n                /* \"#utility.yul\":669:675   */\n              dup2\n                /* \"#utility.yul\":656:676   */\n              calldataload\n                /* \"#utility.yul\":694:773   */\n              tag_73\n                /* \"#utility.yul\":769:772   */\n              dup5\n                /* \"#utility.yul\":761:767   */\n              dup3\n                /* \"#utility.yul\":754:758   */\n              0x20\n                /* \"#utility.yul\":746:752   */\n              dup7\n                /* \"#utility.yul\":742:759   */\n              add\n                /* \"#utility.yul\":694:773   */\n              tag_57\n              jump\t// in\n            tag_73:\n                /* \"#utility.yul\":685:773   */\n              swap2\n              pop\n                /* \"#utility.yul\":501:779   */\n              pop\n                /* \"#utility.yul\":439:779   */\n              swap3\n              swap2\n              pop\n              pop\n              jump\t// out\n                /* \"#utility.yul\":785:924   */\n            tag_74:\n                /* \"#utility.yul\":831:836   */\n              0x00\n                /* \"#utility.yul\":869:875   */\n              dup2\n                /* \"#utility.yul\":856:876   */\n              calldataload\n                /* \"#utility.yul\":847:876   */\n              swap1\n              pop\n                /* \"#utility.yul\":885:918   */\n              tag_76\n                /* \"#utility.yul\":912:917   */\n              dup2\n                /* \"#utility.yul\":885:918   */\n              tag_77\n              jump\t// in\n            tag_76:\n                /* \"#utility.yul\":785:924   */\n              swap3\n              swap2\n              pop\n              pop\n              jump\t// out\n                /* \"#utility.yul\":930:1439   */\n            tag_18:\n                /* \"#utility.yul\":999:1005   */\n              0x00\n                /* \"#utility.yul\":1048:1050   */\n              0x20\n                /* \"#utility.yul\":1036:1045   */\n              dup3\n                /* \"#utility.yul\":1027:1034   */\n              dup5\n                /* \"#utility.yul\":1023:1046   */\n              sub\n                /* \"#utility.yul\":1019:1051   */\n              slt\n                /* \"#utility.yul\":1016:1135   */\n              iszero\n              tag_79\n              jumpi\n                /* \"#utility.yul\":1054:1133   */\n              tag_80\n              tag_81\n              jump\t// in\n            tag_80:\n                /* \"#utility.yul\":1016:1135   */\n            tag_79:\n                /* \"#utility.yul\":1202:1203   */\n              0x00\n                /* \"#utility.yul\":1191:1200   */\n              dup3\n                /* \"#utility.yul\":1187:1204   */\n              add\n                /* \"#utility.yul\":1174:1205   */\n              calldataload\n                /* \"#utility.yul\":1232:1250   */\n              0xffffffffffffffff\n                /* \"#utility.yul\":1224:1230   */\n              dup2\n                /* \"#utility.yul\":1221:1251   */\n              gt\n                /* \"#utility.yul\":1218:1335   */\n              iszero\n              tag_82\n              jumpi\n                /* \"#utility.yul\":1254:1333   */\n              tag_83\n              tag_84\n              jump\t// in\n            tag_83:\n                /* \"#utility.yul\":1218:1335   */\n            tag_82:\n                /* \"#utility.yul\":1359:1422   */\n              tag_85\n                /* \"#utility.yul\":1414:1421   */\n              dup5\n                /* \"#utility.yul\":1405:1411   */\n              dup3\n                /* \"#utility.yul\":1394:1403   */\n              dup6\n                /* \"#utility.yul\":1390:1412   */\n              add\n                /* \"#utility.yul\":1359:1422   */\n              tag_68\n              jump\t// in\n            tag_85:\n                /* \"#utility.yul\":1349:1422   */\n              swap2\n              pop\n                /* \"#utility.yul\":1145:1432   */\n              pop\n                /* \"#utility.yul\":930:1439   */\n              swap3\n              swap2\n              pop\n              pop\n              jump\t// out\n                /* \"#utility.yul\":1445:2099   */\n            tag_14:\n                /* \"#utility.yul\":1523:1529   */\n              0x00\n                /* \"#utility.yul\":1531:1537   */\n              dup1\n                /* \"#utility.yul\":1580:1582   */\n              0x40\n                /* \"#utility.yul\":1568:1577   */\n              dup4\n                /* \"#utility.yul\":1559:1566   */\n              dup6\n                /* \"#utility.yul\":1555:1578   */\n              sub\n                /* \"#utility.yul\":1551:1583   */\n              slt\n                /* \"#utility.yul\":1548:1667   */\n              iszero\n              tag_87\n              jumpi\n                /* \"#utility.yul\":1586:1665   */\n              tag_88\n              tag_81\n              jump\t// in\n            tag_88:\n                /* \"#utility.yul\":1548:1667   */\n            tag_87:\n                /* \"#utility.yul\":1734:1735   */\n              0x00\n                /* \"#utility.yul\":1723:1732   */\n              dup4\n                /* \"#utility.yul\":1719:1736   */\n              add\n                /* \"#utility.yul\":1706:1737   */\n              calldataload\n                /* \"#utility.yul\":1764:1782   */\n              0xffffffffffffffff\n                /* \"#utility.yul\":1756:1762   */\n              dup2\n                /* \"#utility.yul\":1753:1783   */\n              gt\n                /* \"#utility.yul\":1750:1867   */\n              iszero\n              tag_89\n              jumpi\n                /* \"#utility.yul\":1786:1865   */\n              tag_90\n              tag_84\n              jump\t// in\n            tag_90:\n                /* \"#utility.yul\":1750:1867   */\n            tag_89:\n                /* \"#utility.yul\":1891:1954   */\n              tag_91\n                /* \"#utility.yul\":1946:1953   */\n              dup6\n                /* \"#utility.yul\":1937:1943   */\n              dup3\n                /* \"#utility.yul\":1926:1935   */\n              dup7\n                /* \"#utility.yul\":1922:1944   */\n              add\n                /* \"#utility.yul\":1891:1954   */\n              tag_68\n              jump\t// in\n            tag_91:\n                /* \"#utility.yul\":1881:1954   */\n              swap3\n              pop\n                /* \"#utility.yul\":1677:1964   */\n              pop\n                /* \"#utility.yul\":2003:2005   */\n              0x20\n                /* \"#utility.yul\":2029:2082   */\n              tag_92\n                /* \"#utility.yul\":2074:2081   */\n              dup6\n                /* \"#utility.yul\":2065:2071   */\n              dup3\n                /* \"#utility.yul\":2054:2063   */\n              dup7\n                /* \"#utility.yul\":2050:2072   */\n              add\n                /* \"#utility.yul\":2029:2082   */\n              tag_74\n              jump\t// in\n            tag_92:\n                /* \"#utility.yul\":2019:2082   */\n              swap2\n              pop\n                /* \"#utility.yul\":1974:2092   */\n              pop\n                /* \"#utility.yul\":1445:2099   */\n              swap3\n              pop\n              swap3\n              swap1\n              pop\n              jump\t// out\n                /* \"#utility.yul\":2105:2434   */\n            tag_10:\n                /* \"#utility.yul\":2164:2170   */\n              0x00\n                /* \"#utility.yul\":2213:2215   */\n              0x20\n                /* \"#utility.yul\":2201:2210   */\n              dup3\n                /* \"#utility.yul\":2192:2199   */\n              dup5\n                /* \"#utility.yul\":2188:2211   */\n              sub\n                /* \"#utility.yul\":2184:2216   */\n              slt\n                /* \"#utility.yul\":2181:2300   */\n              iszero\n              tag_94\n              jumpi\n                /* \"#utility.yul\":2219:2298   */\n              tag_95\n              tag_81\n              jump\t// in\n            tag_95:\n                /* \"#utility.yul\":2181:2300   */\n            tag_94:\n                /* \"#utility.yul\":2339:2340   */\n              0x00\n                /* \"#utility.yul\":2364:2417   */\n              tag_96\n                /* \"#utility.yul\":2409:2416   */\n              dup5\n                /* \"#utility.yul\":2400:2406   */\n              dup3\n                /* \"#utility.yul\":2389:2398   */\n              dup6\n                /* \"#utility.yul\":2385:2407   */\n              add\n                /* \"#utility.yul\":2364:2417   */\n              tag_74\n              jump\t// in\n            tag_96:\n                /* \"#utility.yul\":2354:2417   */\n              swap2\n              pop\n                /* \"#utility.yul\":2310:2427   */\n              pop\n                /* \"#utility.yul\":2105:2434   */\n              swap3\n              swap2\n              pop\n              pop\n              jump\t// out\n                /* \"#utility.yul\":2440:2804   */\n            tag_97:\n                /* \"#utility.yul\":2528:2531   */\n              0x00\n                /* \"#utility.yul\":2556:2595   */\n              tag_99\n                /* \"#utility.yul\":2589:2594   */\n              dup3\n                /* \"#utility.yul\":2556:2595   */\n              tag_100\n              jump\t// in\n            tag_99:\n                /* \"#utility.yul\":2611:2682   */\n              tag_101\n                /* \"#utility.yul\":2675:2681   */\n              dup2\n                /* \"#utility.yul\":2670:2673   */\n              dup6\n                /* \"#utility.yul\":2611:2682   */\n              tag_102\n              jump\t// in\n            tag_101:\n                /* \"#utility.yul\":2604:2682   */\n              swap4\n              pop\n                /* \"#utility.yul\":2691:2743   */\n              tag_103\n                /* \"#utility.yul\":2736:2742   */\n              dup2\n                /* \"#utility.yul\":2731:2734   */\n              dup6\n                /* \"#utility.yul\":2724:2728   */\n              0x20\n                /* \"#utility.yul\":2717:2722   */\n              dup7\n                /* \"#utility.yul\":2713:2729   */\n              add\n                /* \"#utility.yul\":2691:2743   */\n              tag_104\n              jump\t// in\n            tag_103:\n                /* \"#utility.yul\":2768:2797   */\n              tag_105\n                /* \"#utility.yul\":2790:2796   */\n              dup2\n                /* \"#utility.yul\":2768:2797   */\n              tag_106\n              jump\t// in\n            tag_105:\n                /* \"#utility.yul\":2763:2766   */\n              dup5\n                /* \"#utility.yul\":2759:2798   */\n              add\n                /* \"#utility.yul\":2752:2798   */\n              swap2\n              pop\n                /* \"#utility.yul\":2532:2804   */\n              pop\n                /* \"#utility.yul\":2440:2804   */\n              swap3\n              swap2\n              pop\n              pop\n              jump\t// out\n                /* \"#utility.yul\":2810:3187   */\n            tag_107:\n                /* \"#utility.yul\":2916:2919   */\n              0x00\n                /* \"#utility.yul\":2944:2983   */\n              tag_109\n                /* \"#utility.yul\":2977:2982   */\n              dup3\n                /* \"#utility.yul\":2944:2983   */\n              tag_100\n              jump\t// in\n            tag_109:\n                /* \"#utility.yul\":2999:3088   */\n              tag_110\n                /* \"#utility.yul\":3081:3087   */\n              dup2\n                /* \"#utility.yul\":3076:3079   */\n              dup6\n                /* \"#utility.yul\":2999:3088   */\n              tag_111\n              jump\t// in\n            tag_110:\n                /* \"#utility.yul\":2992:3088   */\n              swap4\n              pop\n                /* \"#utility.yul\":3097:3149   */\n              tag_112\n                /* \"#utility.yul\":3142:3148   */\n              dup2\n                /* \"#utility.yul\":3137:3140   */\n              dup6\n                /* \"#utility.yul\":3130:3134   */\n              0x20\n                /* \"#utility.yul\":3123:3128   */\n              dup7\n                /* \"#utility.yul\":3119:3135   */\n              add\n                /* \"#utility.yul\":3097:3149   */\n              tag_104\n              jump\t// in\n            tag_112:\n                /* \"#utility.yul\":3174:3180   */\n              dup1\n                /* \"#utility.yul\":3169:3172   */\n              dup5\n                /* \"#utility.yul\":3165:3181   */\n              add\n                /* \"#utility.yul\":3158:3181   */\n              swap2\n              pop\n                /* \"#utility.yul\":2920:3187   */\n              pop\n                /* \"#utility.yul\":2810:3187   */\n              swap3\n              swap2\n              pop\n              pop\n              jump\t// out\n                /* \"#utility.yul\":3193:3311   */\n            tag_113:\n                /* \"#utility.yul\":3280:3304   */\n              tag_115\n                /* \"#utility.yul\":3298:3303   */\n              dup2\n                /* \"#utility.yul\":3280:3304   */\n              tag_116\n              jump\t// in\n            tag_115:\n                /* \"#utility.yul\":3275:3278   */\n              dup3\n                /* \"#utility.yul\":3268:3305   */\n              mstore\n                /* \"#utility.yul\":3193:3311   */\n              pop\n              pop\n              jump\t// out\n                /* \"#utility.yul\":3317:3592   */\n            tag_36:\n                /* \"#utility.yul\":3449:3452   */\n              0x00\n                /* \"#utility.yul\":3471:3566   */\n              tag_118\n                /* \"#utility.yul\":3562:3565   */\n              dup3\n                /* \"#utility.yul\":3553:3559   */\n              dup5\n                /* \"#utility.yul\":3471:3566   */\n              tag_107\n              jump\t// in\n            tag_118:\n                /* \"#utility.yul\":3464:3566   */\n              swap2\n              pop\n                /* \"#utility.yul\":3583:3586   */\n              dup2\n                /* \"#utility.yul\":3576:3586   */\n              swap1\n              pop\n                /* \"#utility.yul\":3317:3592   */\n              swap3\n              swap2\n              pop\n              pop\n              jump\t// out\n                /* \"#utility.yul\":3598:3820   */\n            tag_21:\n                /* \"#utility.yul\":3691:3695   */\n              0x00\n                /* \"#utility.yul\":3729:3731   */\n              0x20\n                /* \"#utility.yul\":3718:3727   */\n              dup3\n                /* \"#utility.yul\":3714:3732   */\n              add\n                /* \"#utility.yul\":3706:3732   */\n              swap1\n              pop\n                /* \"#utility.yul\":3742:3813   */\n              tag_120\n                /* \"#utility.yul\":3810:3811   */\n              0x00\n                /* \"#utility.yul\":3799:3808   */\n              dup4\n                /* \"#utility.yul\":3795:3812   */\n              add\n                /* \"#utility.yul\":3786:3792   */\n              dup5\n                /* \"#utility.yul\":3742:3813   */\n              tag_113\n              jump\t// in\n            tag_120:\n                /* \"#utility.yul\":3598:3820   */\n              swap3\n              swap2\n              pop\n              pop\n              jump\t// out\n                /* \"#utility.yul\":3826:4249   */\n            tag_26:\n                /* \"#utility.yul\":3967:3971   */\n              0x00\n                /* \"#utility.yul\":4005:4007   */\n              0x40\n                /* \"#utility.yul\":3994:4003   */\n              dup3\n                /* \"#utility.yul\":3990:4008   */\n              add\n                /* \"#utility.yul\":3982:4008   */\n              swap1\n              pop\n                /* \"#utility.yul\":4018:4089   */\n              tag_122\n                /* \"#utility.yul\":4086:4087   */\n              0x00\n                /* \"#utility.yul\":4075:4084   */\n              dup4\n                /* \"#utility.yul\":4071:4088   */\n              add\n                /* \"#utility.yul\":4062:4068   */\n              dup6\n                /* \"#utility.yul\":4018:4089   */\n              tag_113\n              jump\t// in\n            tag_122:\n                /* \"#utility.yul\":4136:4145   */\n              dup2\n                /* \"#utility.yul\":4130:4134   */\n              dup2\n                /* \"#utility.yul\":4126:4146   */\n              sub\n                /* \"#utility.yul\":4121:4123   */\n              0x20\n                /* \"#utility.yul\":4110:4119   */\n              dup4\n                /* \"#utility.yul\":4106:4124   */\n              add\n                /* \"#utility.yul\":4099:4147   */\n              mstore\n                /* \"#utility.yul\":4164:4242   */\n              tag_123\n                /* \"#utility.yul\":4237:4241   */\n              dup2\n                /* \"#utility.yul\":4228:4234   */\n              dup5\n                /* \"#utility.yul\":4164:4242   */\n              tag_97\n              jump\t// in\n            tag_123:\n                /* \"#utility.yul\":4156:4242   */\n              swap1\n              pop\n                /* \"#utility.yul\":3826:4249   */\n              swap4\n              swap3\n              pop\n              pop\n              pop\n              jump\t// out\n                /* \"#utility.yul\":4255:4384   */\n            tag_62:\n                /* \"#utility.yul\":4289:4295   */\n              0x00\n                /* \"#utility.yul\":4316:4336   */\n              tag_125\n              tag_126\n              jump\t// in\n            tag_125:\n                /* \"#utility.yul\":4306:4336   */\n              swap1\n              pop\n                /* \"#utility.yul\":4345:4378   */\n              tag_127\n                /* \"#utility.yul\":4373:4377   */\n              dup3\n                /* \"#utility.yul\":4365:4371   */\n              dup3\n                /* \"#utility.yul\":4345:4378   */\n              tag_128\n              jump\t// in\n            tag_127:\n                /* \"#utility.yul\":4255:4384   */\n              swap2\n              swap1\n              pop\n              jump\t// out\n                /* \"#utility.yul\":4390:4465   */\n            tag_126:\n                /* \"#utility.yul\":4423:4429   */\n              0x00\n                /* \"#utility.yul\":4456:4458   */\n              0x40\n                /* \"#utility.yul\":4450:4459   */\n              mload\n                /* \"#utility.yul\":4440:4459   */\n              swap1\n              pop\n                /* \"#utility.yul\":4390:4465   */\n              swap1\n              jump\t// out\n                /* \"#utility.yul\":4471:4779   */\n            tag_61:\n                /* \"#utility.yul\":4533:4537   */\n              0x00\n                /* \"#utility.yul\":4623:4641   */\n              0xffffffffffffffff\n                /* \"#utility.yul\":4615:4621   */\n              dup3\n                /* \"#utility.yul\":4612:4642   */\n              gt\n                /* \"#utility.yul\":4609:4665   */\n              iszero\n              tag_131\n              jumpi\n                /* \"#utility.yul\":4645:4663   */\n              tag_132\n              tag_133\n              jump\t// in\n            tag_132:\n                /* \"#utility.yul\":4609:4665   */\n            tag_131:\n                /* \"#utility.yul\":4683:4712   */\n              tag_134\n                /* \"#utility.yul\":4705:4711   */\n              dup3\n                /* \"#utility.yul\":4683:4712   */\n              tag_106\n              jump\t// in\n            tag_134:\n                /* \"#utility.yul\":4675:4712   */\n              swap1\n              pop\n                /* \"#utility.yul\":4767:4771   */\n              0x20\n                /* \"#utility.yul\":4761:4765   */\n              dup2\n                /* \"#utility.yul\":4757:4772   */\n              add\n                /* \"#utility.yul\":4749:4772   */\n              swap1\n              pop\n                /* \"#utility.yul\":4471:4779   */\n              swap2\n              swap1\n              pop\n              jump\t// out\n                /* \"#utility.yul\":4785:4884   */\n            tag_100:\n                /* \"#utility.yul\":4837:4843   */\n              0x00\n                /* \"#utility.yul\":4871:4876   */\n              dup2\n                /* \"#utility.yul\":4865:4877   */\n              mload\n                /* \"#utility.yul\":4855:4877   */\n              swap1\n              pop\n                /* \"#utility.yul\":4785:4884   */\n              swap2\n              swap1\n              pop\n              jump\t// out\n                /* \"#utility.yul\":4890:5059   */\n            tag_102:\n                /* \"#utility.yul\":4974:4985   */\n              0x00\n                /* \"#utility.yul\":5008:5014   */\n              dup3\n                /* \"#utility.yul\":5003:5006   */\n              dup3\n                /* \"#utility.yul\":4996:5015   */\n              mstore\n                /* \"#utility.yul\":5048:5052   */\n              0x20\n                /* \"#utility.yul\":5043:5046   */\n              dup3\n                /* \"#utility.yul\":5039:5053   */\n              add\n                /* \"#utility.yul\":5024:5053   */\n              swap1\n              pop\n                /* \"#utility.yul\":4890:5059   */\n              swap3\n              swap2\n              pop\n              pop\n              jump\t// out\n                /* \"#utility.yul\":5065:5213   */\n            tag_111:\n                /* \"#utility.yul\":5167:5178   */\n              0x00\n                /* \"#utility.yul\":5204:5207   */\n              dup2\n                /* \"#utility.yul\":5189:5207   */\n              swap1\n              pop\n                /* \"#utility.yul\":5065:5213   */\n              swap3\n              swap2\n              pop\n              pop\n              jump\t// out\n                /* \"#utility.yul\":5219:5296   */\n            tag_116:\n                /* \"#utility.yul\":5256:5263   */\n              0x00\n                /* \"#utility.yul\":5285:5290   */\n              dup2\n                /* \"#utility.yul\":5274:5290   */\n              swap1\n              pop\n                /* \"#utility.yul\":5219:5296   */\n              swap2\n              swap1\n              pop\n              jump\t// out\n                /* \"#utility.yul\":5302:5456   */\n            tag_67:\n                /* \"#utility.yul\":5386:5392   */\n              dup3\n                /* \"#utility.yul\":5381:5384   */\n              dup2\n                /* \"#utility.yul\":5376:5379   */\n              dup4\n                /* \"#utility.yul\":5363:5393   */\n              calldatacopy\n                /* \"#utility.yul\":5448:5449   */\n              0x00\n                /* \"#utility.yul\":5439:5445   */\n              dup4\n                /* \"#utility.yul\":5434:5437   */\n              dup4\n                /* \"#utility.yul\":5430:5446   */\n              add\n                /* \"#utility.yul\":5423:5450   */\n              mstore\n                /* \"#utility.yul\":5302:5456   */\n              pop\n              pop\n              pop\n              jump\t// out\n                /* \"#utility.yul\":5462:5769   */\n            tag_104:\n                /* \"#utility.yul\":5530:5531   */\n              0x00\n                /* \"#utility.yul\":5540:5653   */\n            tag_141:\n                /* \"#utility.yul\":5554:5560   */\n              dup4\n                /* \"#utility.yul\":5551:5552   */\n              dup2\n                /* \"#utility.yul\":5548:5561   */\n              lt\n                /* \"#utility.yul\":5540:5653   */\n              iszero\n              tag_143\n              jumpi\n                /* \"#utility.yul\":5639:5640   */\n              dup1\n                /* \"#utility.yul\":5634:5637   */\n              dup3\n                /* \"#utility.yul\":5630:5641   */\n              add\n                /* \"#utility.yul\":5624:5642   */\n              mload\n                /* \"#utility.yul\":5620:5621   */\n              dup2\n                /* \"#utility.yul\":5615:5618   */\n              dup5\n                /* \"#utility.yul\":5611:5622   */\n              add\n                /* \"#utility.yul\":5604:5643   */\n              mstore\n                /* \"#utility.yul\":5576:5578   */\n              0x20\n                /* \"#utility.yul\":5573:5574   */\n              dup2\n                /* \"#utility.yul\":5569:5579   */\n              add\n                /* \"#utility.yul\":5564:5579   */\n              swap1\n              pop\n                /* \"#utility.yul\":5540:5653   */\n              jump(tag_141)\n            tag_143:\n                /* \"#utility.yul\":5671:5677   */\n              dup4\n                /* \"#utility.yul\":5668:5669   */\n              dup2\n                /* \"#utility.yul\":5665:5678   */\n              gt\n                /* \"#utility.yul\":5662:5763   */\n              iszero\n              tag_144\n              jumpi\n                /* \"#utility.yul\":5751:5752   */\n              0x00\n                /* \"#utility.yul\":5742:5748   */\n              dup5\n                /* \"#utility.yul\":5737:5740   */\n              dup5\n                /* \"#utility.yul\":5733:5749   */\n              add\n                /* \"#utility.yul\":5726:5753   */\n              mstore\n                /* \"#utility.yul\":5662:5763   */\n            tag_144:\n                /* \"#utility.yul\":5511:5769   */\n              pop\n                /* \"#utility.yul\":5462:5769   */\n              pop\n              pop\n              pop\n              jump\t// out\n                /* \"#utility.yul\":5775:6095   */\n            tag_40:\n                /* \"#utility.yul\":5819:5825   */\n              0x00\n                /* \"#utility.yul\":5856:5857   */\n              0x02\n                /* \"#utility.yul\":5850:5854   */\n              dup3\n                /* \"#utility.yul\":5846:5858   */\n              div\n                /* \"#utility.yul\":5836:5858   */\n              swap1\n              pop\n                /* \"#utility.yul\":5903:5904   */\n              0x01\n                /* \"#utility.yul\":5897:5901   */\n              dup3\n                /* \"#utility.yul\":5893:5905   */\n              and\n                /* \"#utility.yul\":5924:5942   */\n              dup1\n                /* \"#utility.yul\":5914:5995   */\n              tag_146\n              jumpi\n                /* \"#utility.yul\":5980:5984   */\n              0x7f\n                /* \"#utility.yul\":5972:5978   */\n              dup3\n                /* \"#utility.yul\":5968:5985   */\n              and\n                /* \"#utility.yul\":5958:5985   */\n              swap2\n              pop\n                /* \"#utility.yul\":5914:5995   */\n            tag_146:\n                /* \"#utility.yul\":6042:6044   */\n              0x20\n                /* \"#utility.yul\":6034:6040   */\n              dup3\n                /* \"#utility.yul\":6031:6045   */\n              lt\n                /* \"#utility.yul\":6011:6029   */\n              dup2\n                /* \"#utility.yul\":6008:6046   */\n              eq\n                /* \"#utility.yul\":6005:6089   */\n              iszero\n              tag_147\n              jumpi\n                /* \"#utility.yul\":6061:6079   */\n              tag_148\n              tag_149\n              jump\t// in\n            tag_148:\n                /* \"#utility.yul\":6005:6089   */\n            tag_147:\n                /* \"#utility.yul\":5826:6095   */\n              pop\n                /* \"#utility.yul\":5775:6095   */\n              swap2\n              swap1\n              pop\n              jump\t// out\n                /* \"#utility.yul\":6101:6382   */\n            tag_128:\n                /* \"#utility.yul\":6184:6211   */\n              tag_151\n                /* \"#utility.yul\":6206:6210   */\n              dup3\n                /* \"#utility.yul\":6184:6211   */\n              tag_106\n              jump\t// in\n            tag_151:\n                /* \"#utility.yul\":6176:6182   */\n              dup2\n                /* \"#utility.yul\":6172:6212   */\n              add\n                /* \"#utility.yul\":6314:6320   */\n              dup2\n                /* \"#utility.yul\":6302:6312   */\n              dup2\n                /* \"#utility.yul\":6299:6321   */\n              lt\n                /* \"#utility.yul\":6278:6296   */\n              0xffffffffffffffff\n                /* \"#utility.yul\":6266:6276   */\n              dup3\n                /* \"#utility.yul\":6263:6297   */\n              gt\n                /* \"#utility.yul\":6260:6322   */\n              or\n                /* \"#utility.yul\":6257:6345   */\n              iszero\n              tag_152\n              jumpi\n                /* \"#utility.yul\":6325:6343   */\n              tag_153\n              tag_133\n              jump\t// in\n            tag_153:\n                /* \"#utility.yul\":6257:6345   */\n            tag_152:\n                /* \"#utility.yul\":6365:6375   */\n              dup1\n                /* \"#utility.yul\":6361:6363   */\n              0x40\n                /* \"#utility.yul\":6354:6376   */\n              mstore\n                /* \"#utility.yul\":6144:6382   */\n              pop\n                /* \"#utility.yul\":6101:6382   */\n              pop\n              pop\n              jump\t// out\n                /* \"#utility.yul\":6388:6568   */\n            tag_149:\n                /* \"#utility.yul\":6436:6513   */\n              0x4e487b7100000000000000000000000000000000000000000000000000000000\n                /* \"#utility.yul\":6433:6434   */\n              0x00\n                /* \"#utility.yul\":6426:6514   */\n              mstore\n                /* \"#utility.yul\":6533:6537   */\n              0x22\n                /* \"#utility.yul\":6530:6531   */\n              0x04\n                /* \"#utility.yul\":6523:6538   */\n              mstore\n                /* \"#utility.yul\":6557:6561   */\n              0x24\n                /* \"#utility.yul\":6554:6555   */\n              0x00\n                /* \"#utility.yul\":6547:6562   */\n              revert\n                /* \"#utility.yul\":6574:6754   */\n            tag_133:\n                /* \"#utility.yul\":6622:6699   */\n              0x4e487b7100000000000000000000000000000000000000000000000000000000\n                /* \"#utility.yul\":6619:6620   */\n              0x00\n                /* \"#utility.yul\":6612:6700   */\n              mstore\n                /* \"#utility.yul\":6719:6723   */\n              0x41\n                /* \"#utility.yul\":6716:6717   */\n              0x04\n                /* \"#utility.yul\":6709:6724   */\n              mstore\n                /* \"#utility.yul\":6743:6747   */\n              0x24\n                /* \"#utility.yul\":6740:6741   */\n              0x00\n                /* \"#utility.yul\":6733:6748   */\n              revert\n                /* \"#utility.yul\":6760:6877   */\n            tag_72:\n                /* \"#utility.yul\":6869:6870   */\n              0x00\n                /* \"#utility.yul\":6866:6867   */\n              dup1\n                /* \"#utility.yul\":6859:6871   */\n              revert\n                /* \"#utility.yul\":6883:7000   */\n            tag_65:\n                /* \"#utility.yul\":6992:6993   */\n              0x00\n                /* \"#utility.yul\":6989:6990   */\n              dup1\n                /* \"#utility.yul\":6982:6994   */\n              revert\n                /* \"#utility.yul\":7006:7123   */\n            tag_84:\n                /* \"#utility.yul\":7115:7116   */\n              0x00\n                /* \"#utility.yul\":7112:7113   */\n              dup1\n                /* \"#utility.yul\":7105:7117   */\n              revert\n                /* \"#utility.yul\":7129:7246   */\n            tag_81:\n                /* \"#utility.yul\":7238:7239   */\n              0x00\n                /* \"#utility.yul\":7235:7236   */\n              dup1\n                /* \"#utility.yul\":7228:7240   */\n              revert\n                /* \"#utility.yul\":7252:7354   */\n            tag_106:\n                /* \"#utility.yul\":7293:7299   */\n              0x00\n                /* \"#utility.yul\":7344:7346   */\n              0x1f\n                /* \"#utility.yul\":7340:7347   */\n              not\n                /* \"#utility.yul\":7335:7337   */\n              0x1f\n                /* \"#utility.yul\":7328:7333   */\n              dup4\n                /* \"#utility.yul\":7324:7338   */\n              add\n                /* \"#utility.yul\":7320:7348   */\n              and\n                /* \"#utility.yul\":7310:7348   */\n              swap1\n              pop\n                /* \"#utility.yul\":7252:7354   */\n              swap2\n              swap1\n              pop\n              jump\t// out\n                /* \"#utility.yul\":7360:7482   */\n            tag_77:\n                /* \"#utility.yul\":7433:7457   */\n              tag_162\n                /* \"#utility.yul\":7451:7456   */\n              dup2\n                /* \"#utility.yul\":7433:7457   */\n              tag_116\n              jump\t// in\n            tag_162:\n                /* \"#utility.yul\":7426:7431   */\n              dup2\n                /* \"#utility.yul\":7423:7458   */\n              eq\n                /* \"#utility.yul\":7413:7476   */\n              tag_163\n              jumpi\n                /* \"#utility.yul\":7472:7473   */\n              0x00\n                /* \"#utility.yul\":7469:7470   */\n              dup1\n                /* \"#utility.yul\":7462:7474   */\n              revert\n                /* \"#utility.yul\":7413:7476   */\n            tag_163:\n                /* \"#utility.yul\":7360:7482   */\n              pop\n              jump\t// out\n\n            auxdata: 0xa26469706673582212207645acf8766df82b05e961d70d4ddbf7619b4625d23cc5bf15f09a25ac573cc064736f6c63430008070033\n        }\n    }\n\n    auxdata: 0xa26469706673582212203ec57fb887917e0344a84b4d8de8f330c8763f78dfa288330858996d542e031f64736f6c63430008070033\n}\n",
				"bytecode": {
					"linkReferences": {},
					"object": "608060405234801561001057600080fd5b50610ebe806100206000396000f3fe608060405234801561001057600080fd5b506004361061004c5760003560e01c80631563700f146100515780631dda65411461006d57806364591bf114610077578063c5f19c20146100a7575b600080fd5b61006b600480360381019061006691906103ab565b6100d7565b005b610075610184565b005b610091600480360381019061008c9190610351565b610217565b60405161009e9190610409565b60405180910390f35b6100c160048036038101906100bc9190610351565b610256565b6040516100ce9190610424565b60405180910390f35b600082815481106100eb576100ea61049f565b5b9060005260206000200160009054906101000a900473ffffffffffffffffffffffffffffffffffffffff1673ffffffffffffffffffffffffffffffffffffffff166369404ebd826040518263ffffffff1660e01b815260040161014e9190610424565b600060405180830381600087803b15801561016857600080fd5b505af115801561017c573d6000803e3d6000fd5b505050505050565b60006040516101929061031a565b604051809103906000f0801580156101ae573d6000803e3d6000fd5b5090506000819080600181540180825580915050600190039060005260206000200160009091909190916101000a81548173ffffffffffffffffffffffffffffffffffffffff021916908373ffffffffffffffffffffffffffffffffffffffff16021790555050565b6000818154811061022757600080fd5b906000526020600020016000915054906101000a900473ffffffffffffffffffffffffffffffffffffffff1681565b600080828154811061026b5761026a61049f565b5b9060005260206000200160009054906101000a900473ffffffffffffffffffffffffffffffffffffffff1673ffffffffffffffffffffffffffffffffffffffff1663d39afe6d6040518163ffffffff1660e01b815260040160206040518083038186803b1580156102db57600080fd5b505afa1580156102ef573d6000803e3d6000fd5b505050506040513d601f19601f82011682018060405250810190610313919061037e565b9050919050565b61099e806104eb83390190565b600081359050610336816104d3565b92915050565b60008151905061034b816104d3565b92915050565b600060208284031215610367576103666104ce565b5b600061037584828501610327565b91505092915050565b600060208284031215610394576103936104ce565b5b60006103a28482850161033c565b91505092915050565b600080604083850312156103c2576103c16104ce565b5b60006103d085828601610327565b92505060206103e185828601610327565b9150509250929050565b6103f481610469565b82525050565b6104038161045f565b82525050565b600060208201905061041e60008301846103eb565b92915050565b600060208201905061043960008301846103fa565b92915050565b600073ffffffffffffffffffffffffffffffffffffffff82169050919050565b6000819050919050565b60006104748261047b565b9050919050565b60006104868261048d565b9050919050565b60006104988261043f565b9050919050565b7f4e487b7100000000000000000000000000000000000000000000000000000000600052603260045260246000fd5b600080fd5b6104dc8161045f565b81146104e757600080fd5b5056fe608060405260016000806101000a81548160ff021916908315150217905550600760015561026b600260006101000a81548161ffff021916908361ffff1602179055507ffffffffffffffffffffffffffffffffffffffffffffffffffffffffffffffff76003556040518060400160405280600581526020017f536576656e000000000000000000000000000000000000000000000000000000815250600490805190602001906100b1929190610119565b5073f2afa62533357e2a39864680a3dacd1f49fa6bd5600560006101000a81548173ffffffffffffffffffffffffffffffffffffffff021916908373ffffffffffffffffffffffffffffffffffffffff16021790555034801561011357600080fd5b5061021d565b828054610125906101bc565b90600052602060002090601f016020900481019282610147576000855561018e565b82601f1061016057805160ff191683800117855561018e565b8280016001018555821561018e579182015b8281111561018d578251825591602001919060010190610172565b5b50905061019b919061019f565b5090565b5b808211156101b85760008160009055506001016101a0565b5090565b600060028204905060018216806101d457607f821691505b602082108114156101e8576101e76101ee565b5b50919050565b7f4e487b7100000000000000000000000000000000000000000000000000000000600052602260045260246000fd5b6107728061022c6000396000f3fe608060405234801561001057600080fd5b50600436106100575760003560e01c806369404ebd1461005c5780636f760f41146100785780638bab8dd5146100945780639e7a13ad146100c4578063d39afe6d146100f5575b600080fd5b6100766004803603810190610071919061046e565b610113565b005b610092600480360381019061008d9190610412565b61011d565b005b6100ae60048036038101906100a991906103c9565b6101ad565b6040516100bb919061052b565b60405180910390f35b6100de60048036038101906100d9919061046e565b6101db565b6040516100ec929190610546565b60405180910390f35b6100fd610297565b60405161010a919061052b565b60405180910390f35b8060068190555050565b600860405180604001604052808381526020018481525090806001815401808255809150506001900390600052602060002090600202016000909190919091506000820151816000015560208201518160010190805190602001906101839291906102a1565b505050806007836040516101979190610514565b9081526020016040518091039020819055505050565b6007818051602081018201805184825260208301602085012081835280955050505050506000915090505481565b600881815481106101eb57600080fd5b90600052602060002090600202016000915090508060000154908060010180546102149061063f565b80601f01602080910402602001604051908101604052809291908181526020018280546102409061063f565b801561028d5780601f106102625761010080835404028352916020019161028d565b820191906000526020600020905b81548152906001019060200180831161027057829003601f168201915b5050505050905082565b6000600654905090565b8280546102ad9061063f565b90600052602060002090601f0160209004810192826102cf5760008555610316565b82601f106102e857805160ff1916838001178555610316565b82800160010185558215610316579182015b828111156103155782518255916020019190600101906102fa565b5b5090506103239190610327565b5090565b5b80821115610340576000816000905550600101610328565b5090565b60006103576103528461059b565b610576565b90508281526020810184848401111561037357610372610705565b5b61037e8482856105fd565b509392505050565b600082601f83011261039b5761039a610700565b5b81356103ab848260208601610344565b91505092915050565b6000813590506103c381610725565b92915050565b6000602082840312156103df576103de61070f565b5b600082013567ffffffffffffffff8111156103fd576103fc61070a565b5b61040984828501610386565b91505092915050565b600080604083850312156104295761042861070f565b5b600083013567ffffffffffffffff8111156104475761044661070a565b5b61045385828601610386565b9250506020610464858286016103b4565b9150509250929050565b6000602082840312156104845761048361070f565b5b6000610492848285016103b4565b91505092915050565b60006104a6826105cc565b6104b081856105d7565b93506104c081856020860161060c565b6104c981610714565b840191505092915050565b60006104df826105cc565b6104e981856105e8565b93506104f981856020860161060c565b80840191505092915050565b61050e816105f3565b82525050565b600061052082846104d4565b915081905092915050565b60006020820190506105406000830184610505565b92915050565b600060408201905061055b6000830185610505565b818103602083015261056d818461049b565b90509392505050565b6000610580610591565b905061058c8282610671565b919050565b6000604051905090565b600067ffffffffffffffff8211156105b6576105b56106d1565b5b6105bf82610714565b9050602081019050919050565b600081519050919050565b600082825260208201905092915050565b600081905092915050565b6000819050919050565b82818337600083830152505050565b60005b8381101561062a57808201518184015260208101905061060f565b83811115610639576000848401525b50505050565b6000600282049050600182168061065757607f821691505b6020821081141561066b5761066a6106a2565b5b50919050565b61067a82610714565b810181811067ffffffffffffffff82111715610699576106986106d1565b5b80604052505050565b7f4e487b7100000000000000000000000000000000000000000000000000000000600052602260045260246000fd5b7f4e487b7100000000000000000000000000000000000000000000000000000000600052604160045260246000fd5b600080fd5b600080fd5b600080fd5b600080fd5b6000601f19601f8301169050919050565b61072e816105f3565b811461073957600080fd5b5056fea26469706673582212207645acf8766df82b05e961d70d4ddbf7619b4625d23cc5bf15f09a25ac573cc064736f6c63430008070033a26469706673582212203ec57fb887917e0344a84b4d8de8f330c8763f78dfa288330858996d542e031f64736f6c63430008070033",
					"opcodes": "PUSH1 0x80 PUSH1 0x40 MSTORE CALLVALUE DUP1 ISZERO PUSH2 0x10 JUMPI PUSH1 0x0 DUP1 REVERT JUMPDEST POP PUSH2 0xEBE DUP1 PUSH2 0x20 PUSH1 0x0 CODECOPY PUSH1 0x0 RETURN INVALID PUSH1 0x80 PUSH1 0x40 MSTORE CALLVALUE DUP1 ISZERO PUSH2 0x10 JUMPI PUSH1 0x0 DUP1 REVERT JUMPDEST POP PUSH1 0x4 CALLDATASIZE LT PUSH2 0x4C JUMPI PUSH1 0x0 CALLDATALOAD PUSH1 0xE0 SHR DUP1 PUSH4 0x1563700F EQ PUSH2 0x51 JUMPI DUP1 PUSH4 0x1DDA6541 EQ PUSH2 0x6D JUMPI DUP1 PUSH4 0x64591BF1 EQ PUSH2 0x77 JUMPI DUP1 PUSH4 0xC5F19C20 EQ PUSH2 0xA7 JUMPI JUMPDEST PUSH1 0x0 DUP1 REVERT JUMPDEST PUSH2 0x6B PUSH1 0x4 DUP1 CALLDATASIZE SUB DUP2 ADD SWAP1 PUSH2 0x66 SWAP2 SWAP1 PUSH2 0x3AB JUMP JUMPDEST PUSH2 0xD7 JUMP JUMPDEST STOP JUMPDEST PUSH2 0x75 PUSH2 0x184 JUMP JUMPDEST STOP JUMPDEST PUSH2 0x91 PUSH1 0x4 DUP1 CALLDATASIZE SUB DUP2 ADD SWAP1 PUSH2 0x8C SWAP2 SWAP1 PUSH2 0x351 JUMP JUMPDEST PUSH2 0x217 JUMP JUMPDEST PUSH1 0x40 MLOAD PUSH2 0x9E SWAP2 SWAP1 PUSH2 0x409 JUMP JUMPDEST PUSH1 0x40 MLOAD DUP1 SWAP2 SUB SWAP1 RETURN JUMPDEST PUSH2 0xC1 PUSH1 0x4 DUP1 CALLDATASIZE SUB DUP2 ADD SWAP1 PUSH2 0xBC SWAP2 SWAP1 PUSH2 0x351 JUMP JUMPDEST PUSH2 0x256 JUMP JUMPDEST PUSH1 0x40 MLOAD PUSH2 0xCE SWAP2 SWAP1 PUSH2 0x424 JUMP JUMPDEST PUSH1 0x40 MLOAD DUP1 SWAP2 SUB SWAP1 RETURN JUMPDEST PUSH1 0x0 DUP3 DUP2 SLOAD DUP2 LT PUSH2 0xEB JUMPI PUSH2 0xEA PUSH2 0x49F JUMP JUMPDEST JUMPDEST SWAP1 PUSH1 0x0 MSTORE PUSH1 0x20 PUSH1 0x0 KECCAK256 ADD PUSH1 0x0 SWAP1 SLOAD SWAP1 PUSH2 0x100 EXP SWAP1 DIV PUSH20 0xFFFFFFFFFFFFFFFFFFFFFFFFFFFFFFFFFFFFFFFF AND PUSH20 0xFFFFFFFFFFFFFFFFFFFFFFFFFFFFFFFFFFFFFFFF AND PUSH4 0x69404EBD DUP3 PUSH1 0x40 MLOAD DUP3 PUSH4 0xFFFFFFFF AND PUSH1 0xE0 SHL DUP2 MSTORE PUSH1 0x4 ADD PUSH2 0x14E SWAP2 SWAP1 PUSH2 0x424 JUMP JUMPDEST PUSH1 0x0 PUSH1 0x40 MLOAD DUP1 DUP4 SUB DUP2 PUSH1 0x0 DUP8 DUP1 EXTCODESIZE ISZERO DUP1 ISZERO PUSH2 0x168 JUMPI PUSH1 0x0 DUP1 REVERT JUMPDEST POP GAS CALL ISZERO DUP1 ISZERO PUSH2 0x17C JUMPI RETURNDATASIZE PUSH1 0x0 DUP1 RETURNDATACOPY RETURNDATASIZE PUSH1 0x0 REVERT JUMPDEST POP POP POP POP POP POP JUMP JUMPDEST PUSH1 0x0 PUSH1 0x40 MLOAD PUSH2 0x192 SWAP1 PUSH2 0x31A JUMP JUMPDEST PUSH1 0x40 MLOAD DUP1 SWAP2 SUB SWAP1 PUSH1 0x0 CREATE DUP1 ISZERO DUP1 ISZERO PUSH2 0x1AE JUMPI RETURNDATASIZE PUSH1 0x0 DUP1 RETURNDATACOPY RETURNDATASIZE PUSH1 0x0 REVERT JUMPDEST POP SWAP1 POP PUSH1 0x0 DUP2 SWAP1 DUP1 PUSH1 0x1 DUP2 SLOAD ADD DUP1 DUP3 SSTORE DUP1 SWAP2 POP POP PUSH1 0x1 SWAP1 SUB SWAP1 PUSH1 0x0 MSTORE PUSH1 0x20 PUSH1 0x0 KECCAK256 ADD PUSH1 0x0 SWAP1 SWAP2 SWAP1 SWAP2 SWAP1 SWAP2 PUSH2 0x100 EXP DUP2 SLOAD DUP2 PUSH20 0xFFFFFFFFFFFFFFFFFFFFFFFFFFFFFFFFFFFFFFFF MUL NOT AND SWAP1 DUP4 PUSH20 0xFFFFFFFFFFFFFFFFFFFFFFFFFFFFFFFFFFFFFFFF AND MUL OR SWAP1 SSTORE POP POP JUMP JUMPDEST PUSH1 0x0 DUP2 DUP2 SLOAD DUP2 LT PUSH2 0x227 JUMPI PUSH1 0x0 DUP1 REVERT JUMPDEST SWAP1 PUSH1 0x0 MSTORE PUSH1 0x20 PUSH1 0x0 KECCAK256 ADD PUSH1 0x0 SWAP2 POP SLOAD SWAP1 PUSH2 0x100 EXP SWAP1 DIV PUSH20 0xFFFFFFFFFFFFFFFFFFFFFFFFFFFFFFFFFFFFFFFF AND DUP2 JUMP JUMPDEST PUSH1 0x0 DUP1 DUP3 DUP2 SLOAD DUP2 LT PUSH2 0x26B JUMPI PUSH2 0x26A PUSH2 0x49F JUMP JUMPDEST JUMPDEST SWAP1 PUSH1 0x0 MSTORE PUSH1 0x20 PUSH1 0x0 KECCAK256 ADD PUSH1 0x0 SWAP1 SLOAD SWAP1 PUSH2 0x100 EXP SWAP1 DIV PUSH20 0xFFFFFFFFFFFFFFFFFFFFFFFFFFFFFFFFFFFFFFFF AND PUSH20 0xFFFFFFFFFFFFFFFFFFFFFFFFFFFFFFFFFFFFFFFF AND PUSH4 0xD39AFE6D PUSH1 0x40 MLOAD DUP2 PUSH4 0xFFFFFFFF AND PUSH1 0xE0 SHL DUP2 MSTORE PUSH1 0x4 ADD PUSH1 0x20 PUSH1 0x40 MLOAD DUP1 DUP4 SUB DUP2 DUP7 DUP1 EXTCODESIZE ISZERO DUP1 ISZERO PUSH2 0x2DB JUMPI PUSH1 0x0 DUP1 REVERT JUMPDEST POP GAS STATICCALL ISZERO DUP1 ISZERO PUSH2 0x2EF JUMPI RETURNDATASIZE PUSH1 0x0 DUP1 RETURNDATACOPY RETURNDATASIZE PUSH1 0x0 REVERT JUMPDEST POP POP POP POP PUSH1 0x40 MLOAD RETURNDATASIZE PUSH1 0x1F NOT PUSH1 0x1F DUP3 ADD AND DUP3 ADD DUP1 PUSH1 0x40 MSTORE POP DUP2 ADD SWAP1 PUSH2 0x313 SWAP2 SWAP1 PUSH2 0x37E JUMP JUMPDEST SWAP1 POP SWAP2 SWAP1 POP JUMP JUMPDEST PUSH2 0x99E DUP1 PUSH2 0x4EB DUP4 CODECOPY ADD SWAP1 JUMP JUMPDEST PUSH1 0x0 DUP2 CALLDATALOAD SWAP1 POP PUSH2 0x336 DUP2 PUSH2 0x4D3 JUMP JUMPDEST SWAP3 SWAP2 POP POP JUMP JUMPDEST PUSH1 0x0 DUP2 MLOAD SWAP1 POP PUSH2 0x34B DUP2 PUSH2 0x4D3 JUMP JUMPDEST SWAP3 SWAP2 POP POP JUMP JUMPDEST PUSH1 0x0 PUSH1 0x20 DUP3 DUP5 SUB SLT ISZERO PUSH2 0x367 JUMPI PUSH2 0x366 PUSH2 0x4CE JUMP JUMPDEST JUMPDEST PUSH1 0x0 PUSH2 0x375 DUP5 DUP3 DUP6 ADD PUSH2 0x327 JUMP JUMPDEST SWAP2 POP POP SWAP3 SWAP2 POP POP JUMP JUMPDEST PUSH1 0x0 PUSH1 0x20 DUP3 DUP5 SUB SLT ISZERO PUSH2 0x394 JUMPI PUSH2 0x393 PUSH2 0x4CE JUMP JUMPDEST JUMPDEST PUSH1 0x0 PUSH2 0x3A2 DUP5 DUP3 DUP6 ADD PUSH2 0x33C JUMP JUMPDEST SWAP2 POP POP SWAP3 SWAP2 POP POP JUMP JUMPDEST PUSH1 0x0 DUP1 PUSH1 0x40 DUP4 DUP6 SUB SLT ISZERO PUSH2 0x3C2 JUMPI PUSH2 0x3C1 PUSH2 0x4CE JUMP JUMPDEST JUMPDEST PUSH1 0x0 PUSH2 0x3D0 DUP6 DUP3 DUP7 ADD PUSH2 0x327 JUMP JUMPDEST SWAP3 POP POP PUSH1 0x20 PUSH2 0x3E1 DUP6 DUP3 DUP7 ADD PUSH2 0x327 JUMP JUMPDEST SWAP2 POP POP SWAP3 POP SWAP3 SWAP1 POP JUMP JUMPDEST PUSH2 0x3F4 DUP2 PUSH2 0x469 JUMP JUMPDEST DUP3 MSTORE POP POP JUMP JUMPDEST PUSH2 0x403 DUP2 PUSH2 0x45F JUMP JUMPDEST DUP3 MSTORE POP POP JUMP JUMPDEST PUSH1 0x0 PUSH1 0x20 DUP3 ADD SWAP1 POP PUSH2 0x41E PUSH1 0x0 DUP4 ADD DUP5 PUSH2 0x3EB JUMP JUMPDEST SWAP3 SWAP2 POP POP JUMP JUMPDEST PUSH1 0x0 PUSH1 0x20 DUP3 ADD SWAP1 POP PUSH2 0x439 PUSH1 0x0 DUP4 ADD DUP5 PUSH2 0x3FA JUMP JUMPDEST SWAP3 SWAP2 POP POP JUMP JUMPDEST PUSH1 0x0 PUSH20 0xFFFFFFFFFFFFFFFFFFFFFFFFFFFFFFFFFFFFFFFF DUP3 AND SWAP1 POP SWAP2 SWAP1 POP JUMP JUMPDEST PUSH1 0x0 DUP2 SWAP1 POP SWAP2 SWAP1 POP JUMP JUMPDEST PUSH1 0x0 PUSH2 0x474 DUP3 PUSH2 0x47B JUMP JUMPDEST SWAP1 POP SWAP2 SWAP1 POP JUMP JUMPDEST PUSH1 0x0 PUSH2 0x486 DUP3 PUSH2 0x48D JUMP JUMPDEST SWAP1 POP SWAP2 SWAP1 POP JUMP JUMPDEST PUSH1 0x0 PUSH2 0x498 DUP3 PUSH2 0x43F JUMP JUMPDEST SWAP1 POP SWAP2 SWAP1 POP JUMP JUMPDEST PUSH32 0x4E487B7100000000000000000000000000000000000000000000000000000000 PUSH1 0x0 MSTORE PUSH1 0x32 PUSH1 0x4 MSTORE PUSH1 0x24 PUSH1 0x0 REVERT JUMPDEST PUSH1 0x0 DUP1 REVERT JUMPDEST PUSH2 0x4DC DUP2 PUSH2 0x45F JUMP JUMPDEST DUP2 EQ PUSH2 0x4E7 JUMPI PUSH1 0x0 DUP1 REVERT JUMPDEST POP JUMP INVALID PUSH1 0x80 PUSH1 0x40 MSTORE PUSH1 0x1 PUSH1 0x0 DUP1 PUSH2 0x100 EXP DUP2 SLOAD DUP2 PUSH1 0xFF MUL NOT AND SWAP1 DUP4 ISZERO ISZERO MUL OR SWAP1 SSTORE POP PUSH1 0x7 PUSH1 0x1 SSTORE PUSH2 0x26B PUSH1 0x2 PUSH1 0x0 PUSH2 0x100 EXP DUP2 SLOAD DUP2 PUSH2 0xFFFF MUL NOT AND SWAP1 DUP4 PUSH2 0xFFFF AND MUL OR SWAP1 SSTORE POP PUSH32 0xFFFFFFFFFFFFFFFFFFFFFFFFFFFFFFFFFFFFFFFFFFFFFFFFFFFFFFFFFFFFFFF7 PUSH1 0x3 SSTORE PUSH1 0x40 MLOAD DUP1 PUSH1 0x40 ADD PUSH1 0x40 MSTORE DUP1 PUSH1 0x5 DUP2 MSTORE PUSH1 0x20 ADD PUSH32 0x536576656E000000000000000000000000000000000000000000000000000000 DUP2 MSTORE POP PUSH1 0x4 SWAP1 DUP1 MLOAD SWAP1 PUSH1 0x20 ADD SWAP1 PUSH2 0xB1 SWAP3 SWAP2 SWAP1 PUSH2 0x119 JUMP JUMPDEST POP PUSH20 0xF2AFA62533357E2A39864680A3DACD1F49FA6BD5 PUSH1 0x5 PUSH1 0x0 PUSH2 0x100 EXP DUP2 SLOAD DUP2 PUSH20 0xFFFFFFFFFFFFFFFFFFFFFFFFFFFFFFFFFFFFFFFF MUL NOT AND SWAP1 DUP4 PUSH20 0xFFFFFFFFFFFFFFFFFFFFFFFFFFFFFFFFFFFFFFFF AND MUL OR SWAP1 SSTORE POP CALLVALUE DUP1 ISZERO PUSH2 0x113 JUMPI PUSH1 0x0 DUP1 REVERT JUMPDEST POP PUSH2 0x21D JUMP JUMPDEST DUP3 DUP1 SLOAD PUSH2 0x125 SWAP1 PUSH2 0x1BC JUMP JUMPDEST SWAP1 PUSH1 0x0 MSTORE PUSH1 0x20 PUSH1 0x0 KECCAK256 SWAP1 PUSH1 0x1F ADD PUSH1 0x20 SWAP1 DIV DUP2 ADD SWAP3 DUP3 PUSH2 0x147 JUMPI PUSH1 0x0 DUP6 SSTORE PUSH2 0x18E JUMP JUMPDEST DUP3 PUSH1 0x1F LT PUSH2 0x160 JUMPI DUP1 MLOAD PUSH1 0xFF NOT AND DUP4 DUP1 ADD OR DUP6 SSTORE PUSH2 0x18E JUMP JUMPDEST DUP3 DUP1 ADD PUSH1 0x1 ADD DUP6 SSTORE DUP3 ISZERO PUSH2 0x18E JUMPI SWAP2 DUP3 ADD JUMPDEST DUP3 DUP2 GT ISZERO PUSH2 0x18D JUMPI DUP3 MLOAD DUP3 SSTORE SWAP2 PUSH1 0x20 ADD SWAP2 SWAP1 PUSH1 0x1 ADD SWAP1 PUSH2 0x172 JUMP JUMPDEST JUMPDEST POP SWAP1 POP PUSH2 0x19B SWAP2 SWAP1 PUSH2 0x19F JUMP JUMPDEST POP SWAP1 JUMP JUMPDEST JUMPDEST DUP1 DUP3 GT ISZERO PUSH2 0x1B8 JUMPI PUSH1 0x0 DUP2 PUSH1 0x0 SWAP1 SSTORE POP PUSH1 0x1 ADD PUSH2 0x1A0 JUMP JUMPDEST POP SWAP1 JUMP JUMPDEST PUSH1 0x0 PUSH1 0x2 DUP3 DIV SWAP1 POP PUSH1 0x1 DUP3 AND DUP1 PUSH2 0x1D4 JUMPI PUSH1 0x7F DUP3 AND SWAP2 POP JUMPDEST PUSH1 0x20 DUP3 LT DUP2 EQ ISZERO PUSH2 0x1E8 JUMPI PUSH2 0x1E7 PUSH2 0x1EE JUMP JUMPDEST JUMPDEST POP SWAP2 SWAP1 POP JUMP JUMPDEST PUSH32 0x4E487B7100000000000000000000000000000000000000000000000000000000 PUSH1 0x0 MSTORE PUSH1 0x22 PUSH1 0x4 MSTORE PUSH1 0x24 PUSH1 0x0 REVERT JUMPDEST PUSH2 0x772 DUP1 PUSH2 0x22C PUSH1 0x0 CODECOPY PUSH1 0x0 RETURN INVALID PUSH1 0x80 PUSH1 0x40 MSTORE CALLVALUE DUP1 ISZERO PUSH2 0x10 JUMPI PUSH1 0x0 DUP1 REVERT JUMPDEST POP PUSH1 0x4 CALLDATASIZE LT PUSH2 0x57 JUMPI PUSH1 0x0 CALLDATALOAD PUSH1 0xE0 SHR DUP1 PUSH4 0x69404EBD EQ PUSH2 0x5C JUMPI DUP1 PUSH4 0x6F760F41 EQ PUSH2 0x78 JUMPI DUP1 PUSH4 0x8BAB8DD5 EQ PUSH2 0x94 JUMPI DUP1 PUSH4 0x9E7A13AD EQ PUSH2 0xC4 JUMPI DUP1 PUSH4 0xD39AFE6D EQ PUSH2 0xF5 JUMPI JUMPDEST PUSH1 0x0 DUP1 REVERT JUMPDEST PUSH2 0x76 PUSH1 0x4 DUP1 CALLDATASIZE SUB DUP2 ADD SWAP1 PUSH2 0x71 SWAP2 SWAP1 PUSH2 0x46E JUMP JUMPDEST PUSH2 0x113 JUMP JUMPDEST STOP JUMPDEST PUSH2 0x92 PUSH1 0x4 DUP1 CALLDATASIZE SUB DUP2 ADD SWAP1 PUSH2 0x8D SWAP2 SWAP1 PUSH2 0x412 JUMP JUMPDEST PUSH2 0x11D JUMP JUMPDEST STOP JUMPDEST PUSH2 0xAE PUSH1 0x4 DUP1 CALLDATASIZE SUB DUP2 ADD SWAP1 PUSH2 0xA9 SWAP2 SWAP1 PUSH2 0x3C9 JUMP JUMPDEST PUSH2 0x1AD JUMP JUMPDEST PUSH1 0x40 MLOAD PUSH2 0xBB SWAP2 SWAP1 PUSH2 0x52B JUMP JUMPDEST PUSH1 0x40 MLOAD DUP1 SWAP2 SUB SWAP1 RETURN JUMPDEST PUSH2 0xDE PUSH1 0x4 DUP1 CALLDATASIZE SUB DUP2 ADD SWAP1 PUSH2 0xD9 SWAP2 SWAP1 PUSH2 0x46E JUMP JUMPDEST PUSH2 0x1DB JUMP JUMPDEST PUSH1 0x40 MLOAD PUSH2 0xEC SWAP3 SWAP2 SWAP1 PUSH2 0x546 JUMP JUMPDEST PUSH1 0x40 MLOAD DUP1 SWAP2 SUB SWAP1 RETURN JUMPDEST PUSH2 0xFD PUSH2 0x297 JUMP JUMPDEST PUSH1 0x40 MLOAD PUSH2 0x10A SWAP2 SWAP1 PUSH2 0x52B JUMP JUMPDEST PUSH1 0x40 MLOAD DUP1 SWAP2 SUB SWAP1 RETURN JUMPDEST DUP1 PUSH1 0x6 DUP2 SWAP1 SSTORE POP POP JUMP JUMPDEST PUSH1 0x8 PUSH1 0x40 MLOAD DUP1 PUSH1 0x40 ADD PUSH1 0x40 MSTORE DUP1 DUP4 DUP2 MSTORE PUSH1 0x20 ADD DUP5 DUP2 MSTORE POP SWAP1 DUP1 PUSH1 0x1 DUP2 SLOAD ADD DUP1 DUP3 SSTORE DUP1 SWAP2 POP POP PUSH1 0x1 SWAP1 SUB SWAP1 PUSH1 0x0 MSTORE PUSH1 0x20 PUSH1 0x0 KECCAK256 SWAP1 PUSH1 0x2 MUL ADD PUSH1 0x0 SWAP1 SWAP2 SWAP1 SWAP2 SWAP1 SWAP2 POP PUSH1 0x0 DUP3 ADD MLOAD DUP2 PUSH1 0x0 ADD SSTORE PUSH1 0x20 DUP3 ADD MLOAD DUP2 PUSH1 0x1 ADD SWAP1 DUP1 MLOAD SWAP1 PUSH1 0x20 ADD SWAP1 PUSH2 0x183 SWAP3 SWAP2 SWAP1 PUSH2 0x2A1 JUMP JUMPDEST POP POP POP DUP1 PUSH1 0x7 DUP4 PUSH1 0x40 MLOAD PUSH2 0x197 SWAP2 SWAP1 PUSH2 0x514 JUMP JUMPDEST SWAP1 DUP2 MSTORE PUSH1 0x20 ADD PUSH1 0x40 MLOAD DUP1 SWAP2 SUB SWAP1 KECCAK256 DUP2 SWAP1 SSTORE POP POP POP JUMP JUMPDEST PUSH1 0x7 DUP2 DUP1 MLOAD PUSH1 0x20 DUP2 ADD DUP3 ADD DUP1 MLOAD DUP5 DUP3 MSTORE PUSH1 0x20 DUP4 ADD PUSH1 0x20 DUP6 ADD KECCAK256 DUP2 DUP4 MSTORE DUP1 SWAP6 POP POP POP POP POP POP PUSH1 0x0 SWAP2 POP SWAP1 POP SLOAD DUP2 JUMP JUMPDEST PUSH1 0x8 DUP2 DUP2 SLOAD DUP2 LT PUSH2 0x1EB JUMPI PUSH1 0x0 DUP1 REVERT JUMPDEST SWAP1 PUSH1 0x0 MSTORE PUSH1 0x20 PUSH1 0x0 KECCAK256 SWAP1 PUSH1 0x2 MUL ADD PUSH1 0x0 SWAP2 POP SWAP1 POP DUP1 PUSH1 0x0 ADD SLOAD SWAP1 DUP1 PUSH1 0x1 ADD DUP1 SLOAD PUSH2 0x214 SWAP1 PUSH2 0x63F JUMP JUMPDEST DUP1 PUSH1 0x1F ADD PUSH1 0x20 DUP1 SWAP2 DIV MUL PUSH1 0x20 ADD PUSH1 0x40 MLOAD SWAP1 DUP2 ADD PUSH1 0x40 MSTORE DUP1 SWAP3 SWAP2 SWAP1 DUP2 DUP2 MSTORE PUSH1 0x20 ADD DUP3 DUP1 SLOAD PUSH2 0x240 SWAP1 PUSH2 0x63F JUMP JUMPDEST DUP1 ISZERO PUSH2 0x28D JUMPI DUP1 PUSH1 0x1F LT PUSH2 0x262 JUMPI PUSH2 0x100 DUP1 DUP4 SLOAD DIV MUL DUP4 MSTORE SWAP2 PUSH1 0x20 ADD SWAP2 PUSH2 0x28D JUMP JUMPDEST DUP3 ADD SWAP2 SWAP1 PUSH1 0x0 MSTORE PUSH1 0x20 PUSH1 0x0 KECCAK256 SWAP1 JUMPDEST DUP2 SLOAD DUP2 MSTORE SWAP1 PUSH1 0x1 ADD SWAP1 PUSH1 0x20 ADD DUP1 DUP4 GT PUSH2 0x270 JUMPI DUP3 SWAP1 SUB PUSH1 0x1F AND DUP3 ADD SWAP2 JUMPDEST POP POP POP POP POP SWAP1 POP DUP3 JUMP JUMPDEST PUSH1 0x0 PUSH1 0x6 SLOAD SWAP1 POP SWAP1 JUMP JUMPDEST DUP3 DUP1 SLOAD PUSH2 0x2AD SWAP1 PUSH2 0x63F JUMP JUMPDEST SWAP1 PUSH1 0x0 MSTORE PUSH1 0x20 PUSH1 0x0 KECCAK256 SWAP1 PUSH1 0x1F ADD PUSH1 0x20 SWAP1 DIV DUP2 ADD SWAP3 DUP3 PUSH2 0x2CF JUMPI PUSH1 0x0 DUP6 SSTORE PUSH2 0x316 JUMP JUMPDEST DUP3 PUSH1 0x1F LT PUSH2 0x2E8 JUMPI DUP1 MLOAD PUSH1 0xFF NOT AND DUP4 DUP1 ADD OR DUP6 SSTORE PUSH2 0x316 JUMP JUMPDEST DUP3 DUP1 ADD PUSH1 0x1 ADD DUP6 SSTORE DUP3 ISZERO PUSH2 0x316 JUMPI SWAP2 DUP3 ADD JUMPDEST DUP3 DUP2 GT ISZERO PUSH2 0x315 JUMPI DUP3 MLOAD DUP3 SSTORE SWAP2 PUSH1 0x20 ADD SWAP2 SWAP1 PUSH1 0x1 ADD SWAP1 PUSH2 0x2FA JUMP JUMPDEST JUMPDEST POP SWAP1 POP PUSH2 0x323 SWAP2 SWAP1 PUSH2 0x327 JUMP JUMPDEST POP SWAP1 JUMP JUMPDEST JUMPDEST DUP1 DUP3 GT ISZERO PUSH2 0x340 JUMPI PUSH1 0x0 DUP2 PUSH1 0x0 SWAP1 SSTORE POP PUSH1 0x1 ADD PUSH2 0x328 JUMP JUMPDEST POP SWAP1 JUMP JUMPDEST PUSH1 0x0 PUSH2 0x357 PUSH2 0x352 DUP5 PUSH2 0x59B JUMP JUMPDEST PUSH2 0x576 JUMP JUMPDEST SWAP1 POP DUP3 DUP2 MSTORE PUSH1 0x20 DUP2 ADD DUP5 DUP5 DUP5 ADD GT ISZERO PUSH2 0x373 JUMPI PUSH2 0x372 PUSH2 0x705 JUMP JUMPDEST JUMPDEST PUSH2 0x37E DUP5 DUP3 DUP6 PUSH2 0x5FD JUMP JUMPDEST POP SWAP4 SWAP3 POP POP POP JUMP JUMPDEST PUSH1 0x0 DUP3 PUSH1 0x1F DUP4 ADD SLT PUSH2 0x39B JUMPI PUSH2 0x39A PUSH2 0x700 JUMP JUMPDEST JUMPDEST DUP2 CALLDATALOAD PUSH2 0x3AB DUP5 DUP3 PUSH1 0x20 DUP7 ADD PUSH2 0x344 JUMP JUMPDEST SWAP2 POP POP SWAP3 SWAP2 POP POP JUMP JUMPDEST PUSH1 0x0 DUP2 CALLDATALOAD SWAP1 POP PUSH2 0x3C3 DUP2 PUSH2 0x725 JUMP JUMPDEST SWAP3 SWAP2 POP POP JUMP JUMPDEST PUSH1 0x0 PUSH1 0x20 DUP3 DUP5 SUB SLT ISZERO PUSH2 0x3DF JUMPI PUSH2 0x3DE PUSH2 0x70F JUMP JUMPDEST JUMPDEST PUSH1 0x0 DUP3 ADD CALLDATALOAD PUSH8 0xFFFFFFFFFFFFFFFF DUP2 GT ISZERO PUSH2 0x3FD JUMPI PUSH2 0x3FC PUSH2 0x70A JUMP JUMPDEST JUMPDEST PUSH2 0x409 DUP5 DUP3 DUP6 ADD PUSH2 0x386 JUMP JUMPDEST SWAP2 POP POP SWAP3 SWAP2 POP POP JUMP JUMPDEST PUSH1 0x0 DUP1 PUSH1 0x40 DUP4 DUP6 SUB SLT ISZERO PUSH2 0x429 JUMPI PUSH2 0x428 PUSH2 0x70F JUMP JUMPDEST JUMPDEST PUSH1 0x0 DUP4 ADD CALLDATALOAD PUSH8 0xFFFFFFFFFFFFFFFF DUP2 GT ISZERO PUSH2 0x447 JUMPI PUSH2 0x446 PUSH2 0x70A JUMP JUMPDEST JUMPDEST PUSH2 0x453 DUP6 DUP3 DUP7 ADD PUSH2 0x386 JUMP JUMPDEST SWAP3 POP POP PUSH1 0x20 PUSH2 0x464 DUP6 DUP3 DUP7 ADD PUSH2 0x3B4 JUMP JUMPDEST SWAP2 POP POP SWAP3 POP SWAP3 SWAP1 POP JUMP JUMPDEST PUSH1 0x0 PUSH1 0x20 DUP3 DUP5 SUB SLT ISZERO PUSH2 0x484 JUMPI PUSH2 0x483 PUSH2 0x70F JUMP JUMPDEST JUMPDEST PUSH1 0x0 PUSH2 0x492 DUP5 DUP3 DUP6 ADD PUSH2 0x3B4 JUMP JUMPDEST SWAP2 POP POP SWAP3 SWAP2 POP POP JUMP JUMPDEST PUSH1 0x0 PUSH2 0x4A6 DUP3 PUSH2 0x5CC JUMP JUMPDEST PUSH2 0x4B0 DUP2 DUP6 PUSH2 0x5D7 JUMP JUMPDEST SWAP4 POP PUSH2 0x4C0 DUP2 DUP6 PUSH1 0x20 DUP7 ADD PUSH2 0x60C JUMP JUMPDEST PUSH2 0x4C9 DUP2 PUSH2 0x714 JUMP JUMPDEST DUP5 ADD SWAP2 POP POP SWAP3 SWAP2 POP POP JUMP JUMPDEST PUSH1 0x0 PUSH2 0x4DF DUP3 PUSH2 0x5CC JUMP JUMPDEST PUSH2 0x4E9 DUP2 DUP6 PUSH2 0x5E8 JUMP JUMPDEST SWAP4 POP PUSH2 0x4F9 DUP2 DUP6 PUSH1 0x20 DUP7 ADD PUSH2 0x60C JUMP JUMPDEST DUP1 DUP5 ADD SWAP2 POP POP SWAP3 SWAP2 POP POP JUMP JUMPDEST PUSH2 0x50E DUP2 PUSH2 0x5F3 JUMP JUMPDEST DUP3 MSTORE POP POP JUMP JUMPDEST PUSH1 0x0 PUSH2 0x520 DUP3 DUP5 PUSH2 0x4D4 JUMP JUMPDEST SWAP2 POP DUP2 SWAP1 POP SWAP3 SWAP2 POP POP JUMP JUMPDEST PUSH1 0x0 PUSH1 0x20 DUP3 ADD SWAP1 POP PUSH2 0x540 PUSH1 0x0 DUP4 ADD DUP5 PUSH2 0x505 JUMP JUMPDEST SWAP3 SWAP2 POP POP JUMP JUMPDEST PUSH1 0x0 PUSH1 0x40 DUP3 ADD SWAP1 POP PUSH2 0x55B PUSH1 0x0 DUP4 ADD DUP6 PUSH2 0x505 JUMP JUMPDEST DUP2 DUP2 SUB PUSH1 0x20 DUP4 ADD MSTORE PUSH2 0x56D DUP2 DUP5 PUSH2 0x49B JUMP JUMPDEST SWAP1 POP SWAP4 SWAP3 POP POP POP JUMP JUMPDEST PUSH1 0x0 PUSH2 0x580 PUSH2 0x591 JUMP JUMPDEST SWAP1 POP PUSH2 0x58C DUP3 DUP3 PUSH2 0x671 JUMP JUMPDEST SWAP2 SWAP1 POP JUMP JUMPDEST PUSH1 0x0 PUSH1 0x40 MLOAD SWAP1 POP SWAP1 JUMP JUMPDEST PUSH1 0x0 PUSH8 0xFFFFFFFFFFFFFFFF DUP3 GT ISZERO PUSH2 0x5B6 JUMPI PUSH2 0x5B5 PUSH2 0x6D1 JUMP JUMPDEST JUMPDEST PUSH2 0x5BF DUP3 PUSH2 0x714 JUMP JUMPDEST SWAP1 POP PUSH1 0x20 DUP2 ADD SWAP1 POP SWAP2 SWAP1 POP JUMP JUMPDEST PUSH1 0x0 DUP2 MLOAD SWAP1 POP SWAP2 SWAP1 POP JUMP JUMPDEST PUSH1 0x0 DUP3 DUP3 MSTORE PUSH1 0x20 DUP3 ADD SWAP1 POP SWAP3 SWAP2 POP POP JUMP JUMPDEST PUSH1 0x0 DUP2 SWAP1 POP SWAP3 SWAP2 POP POP JUMP JUMPDEST PUSH1 0x0 DUP2 SWAP1 POP SWAP2 SWAP1 POP JUMP JUMPDEST DUP3 DUP2 DUP4 CALLDATACOPY PUSH1 0x0 DUP4 DUP4 ADD MSTORE POP POP POP JUMP JUMPDEST PUSH1 0x0 JUMPDEST DUP4 DUP2 LT ISZERO PUSH2 0x62A JUMPI DUP1 DUP3 ADD MLOAD DUP2 DUP5 ADD MSTORE PUSH1 0x20 DUP2 ADD SWAP1 POP PUSH2 0x60F JUMP JUMPDEST DUP4 DUP2 GT ISZERO PUSH2 0x639 JUMPI PUSH1 0x0 DUP5 DUP5 ADD MSTORE JUMPDEST POP POP POP POP JUMP JUMPDEST PUSH1 0x0 PUSH1 0x2 DUP3 DIV SWAP1 POP PUSH1 0x1 DUP3 AND DUP1 PUSH2 0x657 JUMPI PUSH1 0x7F DUP3 AND SWAP2 POP JUMPDEST PUSH1 0x20 DUP3 LT DUP2 EQ ISZERO PUSH2 0x66B JUMPI PUSH2 0x66A PUSH2 0x6A2 JUMP JUMPDEST JUMPDEST POP SWAP2 SWAP1 POP JUMP JUMPDEST PUSH2 0x67A DUP3 PUSH2 0x714 JUMP JUMPDEST DUP2 ADD DUP2 DUP2 LT PUSH8 0xFFFFFFFFFFFFFFFF DUP3 GT OR ISZERO PUSH2 0x699 JUMPI PUSH2 0x698 PUSH2 0x6D1 JUMP JUMPDEST JUMPDEST DUP1 PUSH1 0x40 MSTORE POP POP POP JUMP JUMPDEST PUSH32 0x4E487B7100000000000000000000000000000000000000000000000000000000 PUSH1 0x0 MSTORE PUSH1 0x22 PUSH1 0x4 MSTORE PUSH1 0x24 PUSH1 0x0 REVERT JUMPDEST PUSH32 0x4E487B7100000000000000000000000000000000000000000000000000000000 PUSH1 0x0 MSTORE PUSH1 0x41 PUSH1 0x4 MSTORE PUSH1 0x24 PUSH1 0x0 REVERT JUMPDEST PUSH1 0x0 DUP1 REVERT JUMPDEST PUSH1 0x0 DUP1 REVERT JUMPDEST PUSH1 0x0 DUP1 REVERT JUMPDEST PUSH1 0x0 DUP1 REVERT JUMPDEST PUSH1 0x0 PUSH1 0x1F NOT PUSH1 0x1F DUP4 ADD AND SWAP1 POP SWAP2 SWAP1 POP JUMP JUMPDEST PUSH2 0x72E DUP2 PUSH2 0x5F3 JUMP JUMPDEST DUP2 EQ PUSH2 0x739 JUMPI PUSH1 0x0 DUP1 REVERT JUMPDEST POP JUMP INVALID LOG2 PUSH5 0x6970667358 0x22 SLT KECCAK256 PUSH23 0x45ACF8766DF82B05E961D70D4DDBF7619B4625D23CC5BF ISZERO CREATE SWAP11 0x25 0xAC JUMPI EXTCODECOPY 0xC0 PUSH5 0x736F6C6343 STOP ADDMOD SMOD STOP CALLER LOG2 PUSH5 0x6970667358 0x22 SLT KECCAK256 RETURNDATACOPY 0xC5 PUSH32 0xB887917E0344A84B4D8DE8F330C8763F78DFA288330858996D542E031F64736F PUSH13 0x63430008070033000000000000 "
				},
				"gasEstimates": {
					"creation": {
						"codeDepositCost": "754800",
						"executionCost": "786",
						"totalCost": "755586"
					},
					"external": {
						"createSimpleStorageContract()": "infinite",
						"sfGet(uint256)": "infinite",
						"sfStore(uint256,uint256)": "infinite",
						"simpleStorageArray(uint256)": "5064"
					}
				},
				"methodIdentifiers": {
					"createSimpleStorageContract()": "1dda6541",
					"sfGet(uint256)": "c5f19c20",
					"sfStore(uint256,uint256)": "1563700f",
					"simpleStorageArray(uint256)": "64591bf1"
				}
			},
			"storageLayout": {
				"storage": [
					{
						"astId": 84,
						"contract": "RemixIDE/contracts/StorageFactory.sol:StorageFactory",
						"label": "simpleStorageArray",
						"offset": 0,
						"slot": "0",
						"type": "t_array(t_contract(SimpleStorage)77)dyn_storage"
					}
				],
				"types": {
					"t_array(t_contract(SimpleStorage)77)dyn_storage": {
						"base": "t_contract(SimpleStorage)77",
						"encoding": "dynamic_array",
						"label": "contract SimpleStorage[]",
						"numberOfBytes": "32"
					},
					"t_contract(SimpleStorage)77": {
						"encoding": "inplace",
						"label": "contract SimpleStorage",
						"numberOfBytes": "20"
					}
				}
			},
			"userdoc": {
				"kind": "user",
				"methods": {},
				"version": 1
			}
		}
	}
}